{"contracts/multisigWura.sol":{"MultiSig":{"abi":[{"inputs":[{"internalType":"address[]","name":"_admins","type":"address[]"}],"stateMutability":"payable","type":"constructor"},{"inputs":[{"internalType":"uint256","name":"position","type":"uint256"}],"name":"InvalidAddress","type":"error"},{"inputs":[{"internalType":"uint256","name":"number","type":"uint256"}],"name":"InvalidAdminNumber","type":"error"},{"inputs":[{"internalType":"address","name":"_addr","type":"address"}],"name":"duplicate","type":"error"},{"anonymous":false,"inputs":[{"indexed":false,"internalType":"address","name":"who","type":"address"},{"indexed":false,"internalType":"address","name":"spender","type":"address"},{"indexed":false,"internalType":"uint256","name":"amount","type":"uint256"}],"name":"Create","type":"event"},{"inputs":[{"internalType":"uint256","name":"id","type":"uint256"}],"name":"AprroveTransaction","outputs":[],"stateMutability":"nonpayable","type":"function"},{"inputs":[],"name":"calculateMinimumApproval","outputs":[{"internalType":"uint256","name":"MinApp","type":"uint256"}],"stateMutability":"view","type":"function"},{"inputs":[{"internalType":"uint256","name":"amount","type":"uint256"},{"internalType":"address","name":"_spender","type":"address"}],"name":"createTransaction","outputs":[],"stateMutability":"nonpayable","type":"function"},{"inputs":[{"internalType":"uint256","name":"id","type":"uint256"}],"name":"getTransaction","outputs":[{"components":[{"internalType":"address","name":"spender","type":"address"},{"internalType":"uint256","name":"amount","type":"uint256"},{"internalType":"uint256","name":"numberOfApproval","type":"uint256"},{"internalType":"bool","name":"isActive","type":"bool"}],"internalType":"struct MultiSig.Transaction","name":"","type":"tuple"}],"stateMutability":"view","type":"function"},{"stateMutability":"payable","type":"receive"}],"evm":{"bytecode":{"linkReferences":{},"object":"6080604052604051620012b4380380620012b4833981810160405281019062000029919062000534565b600381511015620000745760036040517f2a8876570000000000000000000000000000000000000000000000000000000081526004016200006b9190620005a0565b60405180910390fd5b60005b81518110156200027757600073ffffffffffffffffffffffffffffffffffffffff16828281518110620000af57620000ae620005bd565b5b602002602001015173ffffffffffffffffffffffffffffffffffffffff16036200012057600181620000e291906200061b565b6040517fe71c9b32000000000000000000000000000000000000000000000000000000008152600401620001179190620005a0565b60405180910390fd5b600260008383815181106200013a5762000139620005bd565b5b602002602001015173ffffffffffffffffffffffffffffffffffffffff1673ffffffffffffffffffffffffffffffffffffffff16815260200190815260200160002060009054906101000a900460ff1615620001ec57818181518110620001a657620001a5620005bd565b5b60200260200101516040517f07745c1d000000000000000000000000000000000000000000000000000000008152600401620001e3919062000689565b60405180910390fd5b600160026000848481518110620002085762000207620005bd565b5b602002602001015173ffffffffffffffffffffffffffffffffffffffff1673ffffffffffffffffffffffffffffffffffffffff16815260200190815260200160002060006101000a81548160ff02191690831515021790555080806200026e90620006a6565b91505062000077565b5080600090805190602001906200029092919062000298565b5050620006f3565b82805482825590600052602060002090810192821562000314579160200282015b82811115620003135782518260006101000a81548173ffffffffffffffffffffffffffffffffffffffff021916908373ffffffffffffffffffffffffffffffffffffffff16021790555091602001919060010190620002b9565b5b50905062000323919062000327565b5090565b5b808211156200034257600081600090555060010162000328565b5090565b6000604051905090565b600080fd5b600080fd5b600080fd5b6000601f19601f8301169050919050565b7f4e487b7100000000000000000000000000000000000000000000000000000000600052604160045260246000fd5b620003aa826200035f565b810181811067ffffffffffffffff82111715620003cc57620003cb62000370565b5b80604052505050565b6000620003e162000346565b9050620003ef82826200039f565b919050565b600067ffffffffffffffff82111562000412576200041162000370565b5b602082029050602081019050919050565b600080fd5b600073ffffffffffffffffffffffffffffffffffffffff82169050919050565b6000620004558262000428565b9050919050565b620004678162000448565b81146200047357600080fd5b50565b60008151905062000487816200045c565b92915050565b6000620004a46200049e84620003f4565b620003d5565b90508083825260208201905060208402830185811115620004ca57620004c962000423565b5b835b81811015620004f75780620004e2888262000476565b845260208401935050602081019050620004cc565b5050509392505050565b600082601f8301126200051957620005186200035a565b5b81516200052b8482602086016200048d565b91505092915050565b6000602082840312156200054d576200054c62000350565b5b600082015167ffffffffffffffff8111156200056e576200056d62000355565b5b6200057c8482850162000501565b91505092915050565b6000819050919050565b6200059a8162000585565b82525050565b6000602082019050620005b760008301846200058f565b92915050565b7f4e487b7100000000000000000000000000000000000000000000000000000000600052603260045260246000fd5b7f4e487b7100000000000000000000000000000000000000000000000000000000600052601160045260246000fd5b6000620006288262000585565b9150620006358362000585565b9250827fffffffffffffffffffffffffffffffffffffffffffffffffffffffffffffffff038211156200066d576200066c620005ec565b5b828201905092915050565b620006838162000448565b82525050565b6000602082019050620006a0600083018462000678565b92915050565b6000620006b38262000585565b91507fffffffffffffffffffffffffffffffffffffffffffffffffffffffffffffffff8203620006e857620006e7620005ec565b5b600182019050919050565b610bb180620007036000396000f3fe6080604052600436106100435760003560e01c80630ce5124e1461004f57806333ea3dc8146100785780637cf4c543146100b5578063c8781155146100de5761004a565b3661004a57005b600080fd5b34801561005b57600080fd5b50610076600480360381019061007191906106bb565b610109565b005b34801561008457600080fd5b5061009f600480360381019061009a91906106bb565b61034c565b6040516100ac91906107a8565b60405180910390f35b3480156100c157600080fd5b506100dc60048036038101906100d791906107ef565b6103fe565b005b3480156100ea57600080fd5b506100f361056f565b604051610100919061083e565b60405180910390f35b600260003373ffffffffffffffffffffffffffffffffffffffff1673ffffffffffffffffffffffffffffffffffffffff16815260200190815260200160002060009054906101000a900460ff16610195576040517f08c379a000000000000000000000000000000000000000000000000000000000815260040161018c906108b6565b60405180910390fd5b6004600082815260200190815260200160002060003373ffffffffffffffffffffffffffffffffffffffff1673ffffffffffffffffffffffffffffffffffffffff16815260200190815260200160002060009054906101000a900460ff1615610233576040517f08c379a000000000000000000000000000000000000000000000000000000000815260040161022a90610922565b60405180910390fd5b60016004600083815260200190815260200160002060003373ffffffffffffffffffffffffffffffffffffffff1673ffffffffffffffffffffffffffffffffffffffff16815260200190815260200160002060006101000a81548160ff02191690831515021790555060006003600083815260200190815260200160002090508060030160009054906101000a900460ff16610304576040517f08c379a00000000000000000000000000000000000000000000000000000000081526004016102fb9061098e565b60405180910390fd5b600181600201600082825461031991906109dd565b92505081905550600081600201549050600061033361056f565b90508082106103465761034584610599565b5b50505050565b610354610640565b600360008381526020019081526020016000206040518060800160405290816000820160009054906101000a900473ffffffffffffffffffffffffffffffffffffffff1673ffffffffffffffffffffffffffffffffffffffff1673ffffffffffffffffffffffffffffffffffffffff16815260200160018201548152602001600282015481526020016003820160009054906101000a900460ff1615151515815250509050919050565b600260003373ffffffffffffffffffffffffffffffffffffffff1673ffffffffffffffffffffffffffffffffffffffff16815260200190815260200160002060009054906101000a900460ff1661048a576040517f08c379a0000000000000000000000000000000000000000000000000000000008152600401610481906108b6565b60405180910390fd5b6001600081548092919061049d90610a33565b919050555060006003600060015481526020019081526020016000209050828160010181905550818160000160006101000a81548173ffffffffffffffffffffffffffffffffffffffff021916908373ffffffffffffffffffffffffffffffffffffffff16021790555060018160030160006101000a81548160ff0219169083151502179055507f923f1fa2c44c3aec741bc0bb74cfdb2d73d61ea532799cda54b2941d89ab9fc633838560405161055793929190610a8a565b60405180910390a161056a600154610109565b505050565b600080600080549050905060646046826105899190610ac1565b6105939190610b4a565b91505090565b60006003600083815260200190815260200160002090508060000160009054906101000a900473ffffffffffffffffffffffffffffffffffffffff1673ffffffffffffffffffffffffffffffffffffffff166108fc82600101549081150290604051600060405180830381858888f1935050505015801561061e573d6000803e3d6000fd5b5060008160030160006101000a81548160ff0219169083151502179055505050565b6040518060800160405280600073ffffffffffffffffffffffffffffffffffffffff16815260200160008152602001600081526020016000151581525090565b600080fd5b6000819050919050565b61069881610685565b81146106a357600080fd5b50565b6000813590506106b58161068f565b92915050565b6000602082840312156106d1576106d0610680565b5b60006106df848285016106a6565b91505092915050565b600073ffffffffffffffffffffffffffffffffffffffff82169050919050565b6000610713826106e8565b9050919050565b61072381610708565b82525050565b61073281610685565b82525050565b60008115159050919050565b61074d81610738565b82525050565b608082016000820151610769600085018261071a565b50602082015161077c6020850182610729565b50604082015161078f6040850182610729565b5060608201516107a26060850182610744565b50505050565b60006080820190506107bd6000830184610753565b92915050565b6107cc81610708565b81146107d757600080fd5b50565b6000813590506107e9816107c3565b92915050565b6000806040838503121561080657610805610680565b5b6000610814858286016106a6565b9250506020610825858286016107da565b9150509250929050565b61083881610685565b82525050565b6000602082019050610853600083018461082f565b92915050565b600082825260208201905092915050565b7f4e6f7420612056616c69642041646d696e000000000000000000000000000000600082015250565b60006108a0601183610859565b91506108ab8261086a565b602082019050919050565b600060208201905081810360008301526108cf81610893565b9050919050565b7f416c726561647920417070726f76656421210000000000000000000000000000600082015250565b600061090c601283610859565b9150610917826108d6565b602082019050919050565b6000602082019050818103600083015261093b816108ff565b9050919050565b7f4e6f742061637469766500000000000000000000000000000000000000000000600082015250565b6000610978600a83610859565b915061098382610942565b602082019050919050565b600060208201905081810360008301526109a78161096b565b9050919050565b7f4e487b7100000000000000000000000000000000000000000000000000000000600052601160045260246000fd5b60006109e882610685565b91506109f383610685565b9250827fffffffffffffffffffffffffffffffffffffffffffffffffffffffffffffffff03821115610a2857610a276109ae565b5b828201905092915050565b6000610a3e82610685565b91507fffffffffffffffffffffffffffffffffffffffffffffffffffffffffffffffff8203610a7057610a6f6109ae565b5b600182019050919050565b610a8481610708565b82525050565b6000606082019050610a9f6000830186610a7b565b610aac6020830185610a7b565b610ab9604083018461082f565b949350505050565b6000610acc82610685565b9150610ad783610685565b9250817fffffffffffffffffffffffffffffffffffffffffffffffffffffffffffffffff0483118215151615610b1057610b0f6109ae565b5b828202905092915050565b7f4e487b7100000000000000000000000000000000000000000000000000000000600052601260045260246000fd5b6000610b5582610685565b9150610b6083610685565b925082610b7057610b6f610b1b565b5b82820490509291505056fea264697066735822122099cbaf5225fd68c658ffb77e664bbf2fdf1920af7a8fc1139359667ff805477864736f6c634300080d0033","opcodes":"PUSH1 0x80 PUSH1 0x40 MSTORE PUSH1 0x40 MLOAD PUSH3 0x12B4 CODESIZE SUB DUP1 PUSH3 0x12B4 DUP4 CODECOPY DUP2 DUP2 ADD PUSH1 0x40 MSTORE DUP2 ADD SWAP1 PUSH3 0x29 SWAP2 SWAP1 PUSH3 0x534 JUMP JUMPDEST PUSH1 0x3 DUP2 MLOAD LT ISZERO PUSH3 0x74 JUMPI PUSH1 0x3 PUSH1 0x40 MLOAD PUSH32 0x2A88765700000000000000000000000000000000000000000000000000000000 DUP2 MSTORE PUSH1 0x4 ADD PUSH3 0x6B SWAP2 SWAP1 PUSH3 0x5A0 JUMP JUMPDEST PUSH1 0x40 MLOAD DUP1 SWAP2 SUB SWAP1 REVERT JUMPDEST PUSH1 0x0 JUMPDEST DUP2 MLOAD DUP2 LT ISZERO PUSH3 0x277 JUMPI PUSH1 0x0 PUSH20 0xFFFFFFFFFFFFFFFFFFFFFFFFFFFFFFFFFFFFFFFF AND DUP3 DUP3 DUP2 MLOAD DUP2 LT PUSH3 0xAF JUMPI PUSH3 0xAE PUSH3 0x5BD JUMP JUMPDEST JUMPDEST PUSH1 0x20 MUL PUSH1 0x20 ADD ADD MLOAD PUSH20 0xFFFFFFFFFFFFFFFFFFFFFFFFFFFFFFFFFFFFFFFF AND SUB PUSH3 0x120 JUMPI PUSH1 0x1 DUP2 PUSH3 0xE2 SWAP2 SWAP1 PUSH3 0x61B JUMP JUMPDEST PUSH1 0x40 MLOAD PUSH32 0xE71C9B3200000000000000000000000000000000000000000000000000000000 DUP2 MSTORE PUSH1 0x4 ADD PUSH3 0x117 SWAP2 SWAP1 PUSH3 0x5A0 JUMP JUMPDEST PUSH1 0x40 MLOAD DUP1 SWAP2 SUB SWAP1 REVERT JUMPDEST PUSH1 0x2 PUSH1 0x0 DUP4 DUP4 DUP2 MLOAD DUP2 LT PUSH3 0x13A JUMPI PUSH3 0x139 PUSH3 0x5BD JUMP JUMPDEST JUMPDEST PUSH1 0x20 MUL PUSH1 0x20 ADD ADD MLOAD PUSH20 0xFFFFFFFFFFFFFFFFFFFFFFFFFFFFFFFFFFFFFFFF AND PUSH20 0xFFFFFFFFFFFFFFFFFFFFFFFFFFFFFFFFFFFFFFFF AND DUP2 MSTORE PUSH1 0x20 ADD SWAP1 DUP2 MSTORE PUSH1 0x20 ADD PUSH1 0x0 KECCAK256 PUSH1 0x0 SWAP1 SLOAD SWAP1 PUSH2 0x100 EXP SWAP1 DIV PUSH1 0xFF AND ISZERO PUSH3 0x1EC JUMPI DUP2 DUP2 DUP2 MLOAD DUP2 LT PUSH3 0x1A6 JUMPI PUSH3 0x1A5 PUSH3 0x5BD JUMP JUMPDEST JUMPDEST PUSH1 0x20 MUL PUSH1 0x20 ADD ADD MLOAD PUSH1 0x40 MLOAD PUSH32 0x7745C1D00000000000000000000000000000000000000000000000000000000 DUP2 MSTORE PUSH1 0x4 ADD PUSH3 0x1E3 SWAP2 SWAP1 PUSH3 0x689 JUMP JUMPDEST PUSH1 0x40 MLOAD DUP1 SWAP2 SUB SWAP1 REVERT JUMPDEST PUSH1 0x1 PUSH1 0x2 PUSH1 0x0 DUP5 DUP5 DUP2 MLOAD DUP2 LT PUSH3 0x208 JUMPI PUSH3 0x207 PUSH3 0x5BD JUMP JUMPDEST JUMPDEST PUSH1 0x20 MUL PUSH1 0x20 ADD ADD MLOAD PUSH20 0xFFFFFFFFFFFFFFFFFFFFFFFFFFFFFFFFFFFFFFFF AND PUSH20 0xFFFFFFFFFFFFFFFFFFFFFFFFFFFFFFFFFFFFFFFF AND DUP2 MSTORE PUSH1 0x20 ADD SWAP1 DUP2 MSTORE PUSH1 0x20 ADD PUSH1 0x0 KECCAK256 PUSH1 0x0 PUSH2 0x100 EXP DUP2 SLOAD DUP2 PUSH1 0xFF MUL NOT AND SWAP1 DUP4 ISZERO ISZERO MUL OR SWAP1 SSTORE POP DUP1 DUP1 PUSH3 0x26E SWAP1 PUSH3 0x6A6 JUMP JUMPDEST SWAP2 POP POP PUSH3 0x77 JUMP JUMPDEST POP DUP1 PUSH1 0x0 SWAP1 DUP1 MLOAD SWAP1 PUSH1 0x20 ADD SWAP1 PUSH3 0x290 SWAP3 SWAP2 SWAP1 PUSH3 0x298 JUMP JUMPDEST POP POP PUSH3 0x6F3 JUMP JUMPDEST DUP3 DUP1 SLOAD DUP3 DUP3 SSTORE SWAP1 PUSH1 0x0 MSTORE PUSH1 0x20 PUSH1 0x0 KECCAK256 SWAP1 DUP2 ADD SWAP3 DUP3 ISZERO PUSH3 0x314 JUMPI SWAP2 PUSH1 0x20 MUL DUP3 ADD JUMPDEST DUP3 DUP2 GT ISZERO PUSH3 0x313 JUMPI DUP3 MLOAD DUP3 PUSH1 0x0 PUSH2 0x100 EXP DUP2 SLOAD DUP2 PUSH20 0xFFFFFFFFFFFFFFFFFFFFFFFFFFFFFFFFFFFFFFFF MUL NOT AND SWAP1 DUP4 PUSH20 0xFFFFFFFFFFFFFFFFFFFFFFFFFFFFFFFFFFFFFFFF AND MUL OR SWAP1 SSTORE POP SWAP2 PUSH1 0x20 ADD SWAP2 SWAP1 PUSH1 0x1 ADD SWAP1 PUSH3 0x2B9 JUMP JUMPDEST JUMPDEST POP SWAP1 POP PUSH3 0x323 SWAP2 SWAP1 PUSH3 0x327 JUMP JUMPDEST POP SWAP1 JUMP JUMPDEST JUMPDEST DUP1 DUP3 GT ISZERO PUSH3 0x342 JUMPI PUSH1 0x0 DUP2 PUSH1 0x0 SWAP1 SSTORE POP PUSH1 0x1 ADD PUSH3 0x328 JUMP JUMPDEST POP SWAP1 JUMP JUMPDEST PUSH1 0x0 PUSH1 0x40 MLOAD SWAP1 POP SWAP1 JUMP JUMPDEST PUSH1 0x0 DUP1 REVERT JUMPDEST PUSH1 0x0 DUP1 REVERT JUMPDEST PUSH1 0x0 DUP1 REVERT JUMPDEST PUSH1 0x0 PUSH1 0x1F NOT PUSH1 0x1F DUP4 ADD AND SWAP1 POP SWAP2 SWAP1 POP JUMP JUMPDEST PUSH32 0x4E487B7100000000000000000000000000000000000000000000000000000000 PUSH1 0x0 MSTORE PUSH1 0x41 PUSH1 0x4 MSTORE PUSH1 0x24 PUSH1 0x0 REVERT JUMPDEST PUSH3 0x3AA DUP3 PUSH3 0x35F JUMP JUMPDEST DUP2 ADD DUP2 DUP2 LT PUSH8 0xFFFFFFFFFFFFFFFF DUP3 GT OR ISZERO PUSH3 0x3CC JUMPI PUSH3 0x3CB PUSH3 0x370 JUMP JUMPDEST JUMPDEST DUP1 PUSH1 0x40 MSTORE POP POP POP JUMP JUMPDEST PUSH1 0x0 PUSH3 0x3E1 PUSH3 0x346 JUMP JUMPDEST SWAP1 POP PUSH3 0x3EF DUP3 DUP3 PUSH3 0x39F JUMP JUMPDEST SWAP2 SWAP1 POP JUMP JUMPDEST PUSH1 0x0 PUSH8 0xFFFFFFFFFFFFFFFF DUP3 GT ISZERO PUSH3 0x412 JUMPI PUSH3 0x411 PUSH3 0x370 JUMP JUMPDEST JUMPDEST PUSH1 0x20 DUP3 MUL SWAP1 POP PUSH1 0x20 DUP2 ADD SWAP1 POP SWAP2 SWAP1 POP JUMP JUMPDEST PUSH1 0x0 DUP1 REVERT JUMPDEST PUSH1 0x0 PUSH20 0xFFFFFFFFFFFFFFFFFFFFFFFFFFFFFFFFFFFFFFFF DUP3 AND SWAP1 POP SWAP2 SWAP1 POP JUMP JUMPDEST PUSH1 0x0 PUSH3 0x455 DUP3 PUSH3 0x428 JUMP JUMPDEST SWAP1 POP SWAP2 SWAP1 POP JUMP JUMPDEST PUSH3 0x467 DUP2 PUSH3 0x448 JUMP JUMPDEST DUP2 EQ PUSH3 0x473 JUMPI PUSH1 0x0 DUP1 REVERT JUMPDEST POP JUMP JUMPDEST PUSH1 0x0 DUP2 MLOAD SWAP1 POP PUSH3 0x487 DUP2 PUSH3 0x45C JUMP JUMPDEST SWAP3 SWAP2 POP POP JUMP JUMPDEST PUSH1 0x0 PUSH3 0x4A4 PUSH3 0x49E DUP5 PUSH3 0x3F4 JUMP JUMPDEST PUSH3 0x3D5 JUMP JUMPDEST SWAP1 POP DUP1 DUP4 DUP3 MSTORE PUSH1 0x20 DUP3 ADD SWAP1 POP PUSH1 0x20 DUP5 MUL DUP4 ADD DUP6 DUP2 GT ISZERO PUSH3 0x4CA JUMPI PUSH3 0x4C9 PUSH3 0x423 JUMP JUMPDEST JUMPDEST DUP4 JUMPDEST DUP2 DUP2 LT ISZERO PUSH3 0x4F7 JUMPI DUP1 PUSH3 0x4E2 DUP9 DUP3 PUSH3 0x476 JUMP JUMPDEST DUP5 MSTORE PUSH1 0x20 DUP5 ADD SWAP4 POP POP PUSH1 0x20 DUP2 ADD SWAP1 POP PUSH3 0x4CC JUMP JUMPDEST POP POP POP SWAP4 SWAP3 POP POP POP JUMP JUMPDEST PUSH1 0x0 DUP3 PUSH1 0x1F DUP4 ADD SLT PUSH3 0x519 JUMPI PUSH3 0x518 PUSH3 0x35A JUMP JUMPDEST JUMPDEST DUP2 MLOAD PUSH3 0x52B DUP5 DUP3 PUSH1 0x20 DUP7 ADD PUSH3 0x48D JUMP JUMPDEST SWAP2 POP POP SWAP3 SWAP2 POP POP JUMP JUMPDEST PUSH1 0x0 PUSH1 0x20 DUP3 DUP5 SUB SLT ISZERO PUSH3 0x54D JUMPI PUSH3 0x54C PUSH3 0x350 JUMP JUMPDEST JUMPDEST PUSH1 0x0 DUP3 ADD MLOAD PUSH8 0xFFFFFFFFFFFFFFFF DUP2 GT ISZERO PUSH3 0x56E JUMPI PUSH3 0x56D PUSH3 0x355 JUMP JUMPDEST JUMPDEST PUSH3 0x57C DUP5 DUP3 DUP6 ADD PUSH3 0x501 JUMP JUMPDEST SWAP2 POP POP SWAP3 SWAP2 POP POP JUMP JUMPDEST PUSH1 0x0 DUP2 SWAP1 POP SWAP2 SWAP1 POP JUMP JUMPDEST PUSH3 0x59A DUP2 PUSH3 0x585 JUMP JUMPDEST DUP3 MSTORE POP POP JUMP JUMPDEST PUSH1 0x0 PUSH1 0x20 DUP3 ADD SWAP1 POP PUSH3 0x5B7 PUSH1 0x0 DUP4 ADD DUP5 PUSH3 0x58F JUMP JUMPDEST SWAP3 SWAP2 POP POP JUMP JUMPDEST PUSH32 0x4E487B7100000000000000000000000000000000000000000000000000000000 PUSH1 0x0 MSTORE PUSH1 0x32 PUSH1 0x4 MSTORE PUSH1 0x24 PUSH1 0x0 REVERT JUMPDEST PUSH32 0x4E487B7100000000000000000000000000000000000000000000000000000000 PUSH1 0x0 MSTORE PUSH1 0x11 PUSH1 0x4 MSTORE PUSH1 0x24 PUSH1 0x0 REVERT JUMPDEST PUSH1 0x0 PUSH3 0x628 DUP3 PUSH3 0x585 JUMP JUMPDEST SWAP2 POP PUSH3 0x635 DUP4 PUSH3 0x585 JUMP JUMPDEST SWAP3 POP DUP3 PUSH32 0xFFFFFFFFFFFFFFFFFFFFFFFFFFFFFFFFFFFFFFFFFFFFFFFFFFFFFFFFFFFFFFFF SUB DUP3 GT ISZERO PUSH3 0x66D JUMPI PUSH3 0x66C PUSH3 0x5EC JUMP JUMPDEST JUMPDEST DUP3 DUP3 ADD SWAP1 POP SWAP3 SWAP2 POP POP JUMP JUMPDEST PUSH3 0x683 DUP2 PUSH3 0x448 JUMP JUMPDEST DUP3 MSTORE POP POP JUMP JUMPDEST PUSH1 0x0 PUSH1 0x20 DUP3 ADD SWAP1 POP PUSH3 0x6A0 PUSH1 0x0 DUP4 ADD DUP5 PUSH3 0x678 JUMP JUMPDEST SWAP3 SWAP2 POP POP JUMP JUMPDEST PUSH1 0x0 PUSH3 0x6B3 DUP3 PUSH3 0x585 JUMP JUMPDEST SWAP2 POP PUSH32 0xFFFFFFFFFFFFFFFFFFFFFFFFFFFFFFFFFFFFFFFFFFFFFFFFFFFFFFFFFFFFFFFF DUP3 SUB PUSH3 0x6E8 JUMPI PUSH3 0x6E7 PUSH3 0x5EC JUMP JUMPDEST JUMPDEST PUSH1 0x1 DUP3 ADD SWAP1 POP SWAP2 SWAP1 POP JUMP JUMPDEST PUSH2 0xBB1 DUP1 PUSH3 0x703 PUSH1 0x0 CODECOPY PUSH1 0x0 RETURN INVALID PUSH1 0x80 PUSH1 0x40 MSTORE PUSH1 0x4 CALLDATASIZE LT PUSH2 0x43 JUMPI PUSH1 0x0 CALLDATALOAD PUSH1 0xE0 SHR DUP1 PUSH4 0xCE5124E EQ PUSH2 0x4F JUMPI DUP1 PUSH4 0x33EA3DC8 EQ PUSH2 0x78 JUMPI DUP1 PUSH4 0x7CF4C543 EQ PUSH2 0xB5 JUMPI DUP1 PUSH4 0xC8781155 EQ PUSH2 0xDE JUMPI PUSH2 0x4A JUMP JUMPDEST CALLDATASIZE PUSH2 0x4A JUMPI STOP JUMPDEST PUSH1 0x0 DUP1 REVERT JUMPDEST CALLVALUE DUP1 ISZERO PUSH2 0x5B JUMPI PUSH1 0x0 DUP1 REVERT JUMPDEST POP PUSH2 0x76 PUSH1 0x4 DUP1 CALLDATASIZE SUB DUP2 ADD SWAP1 PUSH2 0x71 SWAP2 SWAP1 PUSH2 0x6BB JUMP JUMPDEST PUSH2 0x109 JUMP JUMPDEST STOP JUMPDEST CALLVALUE DUP1 ISZERO PUSH2 0x84 JUMPI PUSH1 0x0 DUP1 REVERT JUMPDEST POP PUSH2 0x9F PUSH1 0x4 DUP1 CALLDATASIZE SUB DUP2 ADD SWAP1 PUSH2 0x9A SWAP2 SWAP1 PUSH2 0x6BB JUMP JUMPDEST PUSH2 0x34C JUMP JUMPDEST PUSH1 0x40 MLOAD PUSH2 0xAC SWAP2 SWAP1 PUSH2 0x7A8 JUMP JUMPDEST PUSH1 0x40 MLOAD DUP1 SWAP2 SUB SWAP1 RETURN JUMPDEST CALLVALUE DUP1 ISZERO PUSH2 0xC1 JUMPI PUSH1 0x0 DUP1 REVERT JUMPDEST POP PUSH2 0xDC PUSH1 0x4 DUP1 CALLDATASIZE SUB DUP2 ADD SWAP1 PUSH2 0xD7 SWAP2 SWAP1 PUSH2 0x7EF JUMP JUMPDEST PUSH2 0x3FE JUMP JUMPDEST STOP JUMPDEST CALLVALUE DUP1 ISZERO PUSH2 0xEA JUMPI PUSH1 0x0 DUP1 REVERT JUMPDEST POP PUSH2 0xF3 PUSH2 0x56F JUMP JUMPDEST PUSH1 0x40 MLOAD PUSH2 0x100 SWAP2 SWAP1 PUSH2 0x83E JUMP JUMPDEST PUSH1 0x40 MLOAD DUP1 SWAP2 SUB SWAP1 RETURN JUMPDEST PUSH1 0x2 PUSH1 0x0 CALLER PUSH20 0xFFFFFFFFFFFFFFFFFFFFFFFFFFFFFFFFFFFFFFFF AND PUSH20 0xFFFFFFFFFFFFFFFFFFFFFFFFFFFFFFFFFFFFFFFF AND DUP2 MSTORE PUSH1 0x20 ADD SWAP1 DUP2 MSTORE PUSH1 0x20 ADD PUSH1 0x0 KECCAK256 PUSH1 0x0 SWAP1 SLOAD SWAP1 PUSH2 0x100 EXP SWAP1 DIV PUSH1 0xFF AND PUSH2 0x195 JUMPI PUSH1 0x40 MLOAD PUSH32 0x8C379A000000000000000000000000000000000000000000000000000000000 DUP2 MSTORE PUSH1 0x4 ADD PUSH2 0x18C SWAP1 PUSH2 0x8B6 JUMP JUMPDEST PUSH1 0x40 MLOAD DUP1 SWAP2 SUB SWAP1 REVERT JUMPDEST PUSH1 0x4 PUSH1 0x0 DUP3 DUP2 MSTORE PUSH1 0x20 ADD SWAP1 DUP2 MSTORE PUSH1 0x20 ADD PUSH1 0x0 KECCAK256 PUSH1 0x0 CALLER PUSH20 0xFFFFFFFFFFFFFFFFFFFFFFFFFFFFFFFFFFFFFFFF AND PUSH20 0xFFFFFFFFFFFFFFFFFFFFFFFFFFFFFFFFFFFFFFFF AND DUP2 MSTORE PUSH1 0x20 ADD SWAP1 DUP2 MSTORE PUSH1 0x20 ADD PUSH1 0x0 KECCAK256 PUSH1 0x0 SWAP1 SLOAD SWAP1 PUSH2 0x100 EXP SWAP1 DIV PUSH1 0xFF AND ISZERO PUSH2 0x233 JUMPI PUSH1 0x40 MLOAD PUSH32 0x8C379A000000000000000000000000000000000000000000000000000000000 DUP2 MSTORE PUSH1 0x4 ADD PUSH2 0x22A SWAP1 PUSH2 0x922 JUMP JUMPDEST PUSH1 0x40 MLOAD DUP1 SWAP2 SUB SWAP1 REVERT JUMPDEST PUSH1 0x1 PUSH1 0x4 PUSH1 0x0 DUP4 DUP2 MSTORE PUSH1 0x20 ADD SWAP1 DUP2 MSTORE PUSH1 0x20 ADD PUSH1 0x0 KECCAK256 PUSH1 0x0 CALLER PUSH20 0xFFFFFFFFFFFFFFFFFFFFFFFFFFFFFFFFFFFFFFFF AND PUSH20 0xFFFFFFFFFFFFFFFFFFFFFFFFFFFFFFFFFFFFFFFF AND DUP2 MSTORE PUSH1 0x20 ADD SWAP1 DUP2 MSTORE PUSH1 0x20 ADD PUSH1 0x0 KECCAK256 PUSH1 0x0 PUSH2 0x100 EXP DUP2 SLOAD DUP2 PUSH1 0xFF MUL NOT AND SWAP1 DUP4 ISZERO ISZERO MUL OR SWAP1 SSTORE POP PUSH1 0x0 PUSH1 0x3 PUSH1 0x0 DUP4 DUP2 MSTORE PUSH1 0x20 ADD SWAP1 DUP2 MSTORE PUSH1 0x20 ADD PUSH1 0x0 KECCAK256 SWAP1 POP DUP1 PUSH1 0x3 ADD PUSH1 0x0 SWAP1 SLOAD SWAP1 PUSH2 0x100 EXP SWAP1 DIV PUSH1 0xFF AND PUSH2 0x304 JUMPI PUSH1 0x40 MLOAD PUSH32 0x8C379A000000000000000000000000000000000000000000000000000000000 DUP2 MSTORE PUSH1 0x4 ADD PUSH2 0x2FB SWAP1 PUSH2 0x98E JUMP JUMPDEST PUSH1 0x40 MLOAD DUP1 SWAP2 SUB SWAP1 REVERT JUMPDEST PUSH1 0x1 DUP2 PUSH1 0x2 ADD PUSH1 0x0 DUP3 DUP3 SLOAD PUSH2 0x319 SWAP2 SWAP1 PUSH2 0x9DD JUMP JUMPDEST SWAP3 POP POP DUP2 SWAP1 SSTORE POP PUSH1 0x0 DUP2 PUSH1 0x2 ADD SLOAD SWAP1 POP PUSH1 0x0 PUSH2 0x333 PUSH2 0x56F JUMP JUMPDEST SWAP1 POP DUP1 DUP3 LT PUSH2 0x346 JUMPI PUSH2 0x345 DUP5 PUSH2 0x599 JUMP JUMPDEST JUMPDEST POP POP POP POP JUMP JUMPDEST PUSH2 0x354 PUSH2 0x640 JUMP JUMPDEST PUSH1 0x3 PUSH1 0x0 DUP4 DUP2 MSTORE PUSH1 0x20 ADD SWAP1 DUP2 MSTORE PUSH1 0x20 ADD PUSH1 0x0 KECCAK256 PUSH1 0x40 MLOAD DUP1 PUSH1 0x80 ADD PUSH1 0x40 MSTORE SWAP1 DUP2 PUSH1 0x0 DUP3 ADD PUSH1 0x0 SWAP1 SLOAD SWAP1 PUSH2 0x100 EXP SWAP1 DIV PUSH20 0xFFFFFFFFFFFFFFFFFFFFFFFFFFFFFFFFFFFFFFFF AND PUSH20 0xFFFFFFFFFFFFFFFFFFFFFFFFFFFFFFFFFFFFFFFF AND PUSH20 0xFFFFFFFFFFFFFFFFFFFFFFFFFFFFFFFFFFFFFFFF AND DUP2 MSTORE PUSH1 0x20 ADD PUSH1 0x1 DUP3 ADD SLOAD DUP2 MSTORE PUSH1 0x20 ADD PUSH1 0x2 DUP3 ADD SLOAD DUP2 MSTORE PUSH1 0x20 ADD PUSH1 0x3 DUP3 ADD PUSH1 0x0 SWAP1 SLOAD SWAP1 PUSH2 0x100 EXP SWAP1 DIV PUSH1 0xFF AND ISZERO ISZERO ISZERO ISZERO DUP2 MSTORE POP POP SWAP1 POP SWAP2 SWAP1 POP JUMP JUMPDEST PUSH1 0x2 PUSH1 0x0 CALLER PUSH20 0xFFFFFFFFFFFFFFFFFFFFFFFFFFFFFFFFFFFFFFFF AND PUSH20 0xFFFFFFFFFFFFFFFFFFFFFFFFFFFFFFFFFFFFFFFF AND DUP2 MSTORE PUSH1 0x20 ADD SWAP1 DUP2 MSTORE PUSH1 0x20 ADD PUSH1 0x0 KECCAK256 PUSH1 0x0 SWAP1 SLOAD SWAP1 PUSH2 0x100 EXP SWAP1 DIV PUSH1 0xFF AND PUSH2 0x48A JUMPI PUSH1 0x40 MLOAD PUSH32 0x8C379A000000000000000000000000000000000000000000000000000000000 DUP2 MSTORE PUSH1 0x4 ADD PUSH2 0x481 SWAP1 PUSH2 0x8B6 JUMP JUMPDEST PUSH1 0x40 MLOAD DUP1 SWAP2 SUB SWAP1 REVERT JUMPDEST PUSH1 0x1 PUSH1 0x0 DUP2 SLOAD DUP1 SWAP3 SWAP2 SWAP1 PUSH2 0x49D SWAP1 PUSH2 0xA33 JUMP JUMPDEST SWAP2 SWAP1 POP SSTORE POP PUSH1 0x0 PUSH1 0x3 PUSH1 0x0 PUSH1 0x1 SLOAD DUP2 MSTORE PUSH1 0x20 ADD SWAP1 DUP2 MSTORE PUSH1 0x20 ADD PUSH1 0x0 KECCAK256 SWAP1 POP DUP3 DUP2 PUSH1 0x1 ADD DUP2 SWAP1 SSTORE POP DUP2 DUP2 PUSH1 0x0 ADD PUSH1 0x0 PUSH2 0x100 EXP DUP2 SLOAD DUP2 PUSH20 0xFFFFFFFFFFFFFFFFFFFFFFFFFFFFFFFFFFFFFFFF MUL NOT AND SWAP1 DUP4 PUSH20 0xFFFFFFFFFFFFFFFFFFFFFFFFFFFFFFFFFFFFFFFF AND MUL OR SWAP1 SSTORE POP PUSH1 0x1 DUP2 PUSH1 0x3 ADD PUSH1 0x0 PUSH2 0x100 EXP DUP2 SLOAD DUP2 PUSH1 0xFF MUL NOT AND SWAP1 DUP4 ISZERO ISZERO MUL OR SWAP1 SSTORE POP PUSH32 0x923F1FA2C44C3AEC741BC0BB74CFDB2D73D61EA532799CDA54B2941D89AB9FC6 CALLER DUP4 DUP6 PUSH1 0x40 MLOAD PUSH2 0x557 SWAP4 SWAP3 SWAP2 SWAP1 PUSH2 0xA8A JUMP JUMPDEST PUSH1 0x40 MLOAD DUP1 SWAP2 SUB SWAP1 LOG1 PUSH2 0x56A PUSH1 0x1 SLOAD PUSH2 0x109 JUMP JUMPDEST POP POP POP JUMP JUMPDEST PUSH1 0x0 DUP1 PUSH1 0x0 DUP1 SLOAD SWAP1 POP SWAP1 POP PUSH1 0x64 PUSH1 0x46 DUP3 PUSH2 0x589 SWAP2 SWAP1 PUSH2 0xAC1 JUMP JUMPDEST PUSH2 0x593 SWAP2 SWAP1 PUSH2 0xB4A JUMP JUMPDEST SWAP2 POP POP SWAP1 JUMP JUMPDEST PUSH1 0x0 PUSH1 0x3 PUSH1 0x0 DUP4 DUP2 MSTORE PUSH1 0x20 ADD SWAP1 DUP2 MSTORE PUSH1 0x20 ADD PUSH1 0x0 KECCAK256 SWAP1 POP DUP1 PUSH1 0x0 ADD PUSH1 0x0 SWAP1 SLOAD SWAP1 PUSH2 0x100 EXP SWAP1 DIV PUSH20 0xFFFFFFFFFFFFFFFFFFFFFFFFFFFFFFFFFFFFFFFF AND PUSH20 0xFFFFFFFFFFFFFFFFFFFFFFFFFFFFFFFFFFFFFFFF AND PUSH2 0x8FC DUP3 PUSH1 0x1 ADD SLOAD SWAP1 DUP2 ISZERO MUL SWAP1 PUSH1 0x40 MLOAD PUSH1 0x0 PUSH1 0x40 MLOAD DUP1 DUP4 SUB DUP2 DUP6 DUP9 DUP9 CALL SWAP4 POP POP POP POP ISZERO DUP1 ISZERO PUSH2 0x61E JUMPI RETURNDATASIZE PUSH1 0x0 DUP1 RETURNDATACOPY RETURNDATASIZE PUSH1 0x0 REVERT JUMPDEST POP PUSH1 0x0 DUP2 PUSH1 0x3 ADD PUSH1 0x0 PUSH2 0x100 EXP DUP2 SLOAD DUP2 PUSH1 0xFF MUL NOT AND SWAP1 DUP4 ISZERO ISZERO MUL OR SWAP1 SSTORE POP POP POP JUMP JUMPDEST PUSH1 0x40 MLOAD DUP1 PUSH1 0x80 ADD PUSH1 0x40 MSTORE DUP1 PUSH1 0x0 PUSH20 0xFFFFFFFFFFFFFFFFFFFFFFFFFFFFFFFFFFFFFFFF AND DUP2 MSTORE PUSH1 0x20 ADD PUSH1 0x0 DUP2 MSTORE PUSH1 0x20 ADD PUSH1 0x0 DUP2 MSTORE PUSH1 0x20 ADD PUSH1 0x0 ISZERO ISZERO DUP2 MSTORE POP SWAP1 JUMP JUMPDEST PUSH1 0x0 DUP1 REVERT JUMPDEST PUSH1 0x0 DUP2 SWAP1 POP SWAP2 SWAP1 POP JUMP JUMPDEST PUSH2 0x698 DUP2 PUSH2 0x685 JUMP JUMPDEST DUP2 EQ PUSH2 0x6A3 JUMPI PUSH1 0x0 DUP1 REVERT JUMPDEST POP JUMP JUMPDEST PUSH1 0x0 DUP2 CALLDATALOAD SWAP1 POP PUSH2 0x6B5 DUP2 PUSH2 0x68F JUMP JUMPDEST SWAP3 SWAP2 POP POP JUMP JUMPDEST PUSH1 0x0 PUSH1 0x20 DUP3 DUP5 SUB SLT ISZERO PUSH2 0x6D1 JUMPI PUSH2 0x6D0 PUSH2 0x680 JUMP JUMPDEST JUMPDEST PUSH1 0x0 PUSH2 0x6DF DUP5 DUP3 DUP6 ADD PUSH2 0x6A6 JUMP JUMPDEST SWAP2 POP POP SWAP3 SWAP2 POP POP JUMP JUMPDEST PUSH1 0x0 PUSH20 0xFFFFFFFFFFFFFFFFFFFFFFFFFFFFFFFFFFFFFFFF DUP3 AND SWAP1 POP SWAP2 SWAP1 POP JUMP JUMPDEST PUSH1 0x0 PUSH2 0x713 DUP3 PUSH2 0x6E8 JUMP JUMPDEST SWAP1 POP SWAP2 SWAP1 POP JUMP JUMPDEST PUSH2 0x723 DUP2 PUSH2 0x708 JUMP JUMPDEST DUP3 MSTORE POP POP JUMP JUMPDEST PUSH2 0x732 DUP2 PUSH2 0x685 JUMP JUMPDEST DUP3 MSTORE POP POP JUMP JUMPDEST PUSH1 0x0 DUP2 ISZERO ISZERO SWAP1 POP SWAP2 SWAP1 POP JUMP JUMPDEST PUSH2 0x74D DUP2 PUSH2 0x738 JUMP JUMPDEST DUP3 MSTORE POP POP JUMP JUMPDEST PUSH1 0x80 DUP3 ADD PUSH1 0x0 DUP3 ADD MLOAD PUSH2 0x769 PUSH1 0x0 DUP6 ADD DUP3 PUSH2 0x71A JUMP JUMPDEST POP PUSH1 0x20 DUP3 ADD MLOAD PUSH2 0x77C PUSH1 0x20 DUP6 ADD DUP3 PUSH2 0x729 JUMP JUMPDEST POP PUSH1 0x40 DUP3 ADD MLOAD PUSH2 0x78F PUSH1 0x40 DUP6 ADD DUP3 PUSH2 0x729 JUMP JUMPDEST POP PUSH1 0x60 DUP3 ADD MLOAD PUSH2 0x7A2 PUSH1 0x60 DUP6 ADD DUP3 PUSH2 0x744 JUMP JUMPDEST POP POP POP POP JUMP JUMPDEST PUSH1 0x0 PUSH1 0x80 DUP3 ADD SWAP1 POP PUSH2 0x7BD PUSH1 0x0 DUP4 ADD DUP5 PUSH2 0x753 JUMP JUMPDEST SWAP3 SWAP2 POP POP JUMP JUMPDEST PUSH2 0x7CC DUP2 PUSH2 0x708 JUMP JUMPDEST DUP2 EQ PUSH2 0x7D7 JUMPI PUSH1 0x0 DUP1 REVERT JUMPDEST POP JUMP JUMPDEST PUSH1 0x0 DUP2 CALLDATALOAD SWAP1 POP PUSH2 0x7E9 DUP2 PUSH2 0x7C3 JUMP JUMPDEST SWAP3 SWAP2 POP POP JUMP JUMPDEST PUSH1 0x0 DUP1 PUSH1 0x40 DUP4 DUP6 SUB SLT ISZERO PUSH2 0x806 JUMPI PUSH2 0x805 PUSH2 0x680 JUMP JUMPDEST JUMPDEST PUSH1 0x0 PUSH2 0x814 DUP6 DUP3 DUP7 ADD PUSH2 0x6A6 JUMP JUMPDEST SWAP3 POP POP PUSH1 0x20 PUSH2 0x825 DUP6 DUP3 DUP7 ADD PUSH2 0x7DA JUMP JUMPDEST SWAP2 POP POP SWAP3 POP SWAP3 SWAP1 POP JUMP JUMPDEST PUSH2 0x838 DUP2 PUSH2 0x685 JUMP JUMPDEST DUP3 MSTORE POP POP JUMP JUMPDEST PUSH1 0x0 PUSH1 0x20 DUP3 ADD SWAP1 POP PUSH2 0x853 PUSH1 0x0 DUP4 ADD DUP5 PUSH2 0x82F JUMP JUMPDEST SWAP3 SWAP2 POP POP JUMP JUMPDEST PUSH1 0x0 DUP3 DUP3 MSTORE PUSH1 0x20 DUP3 ADD SWAP1 POP SWAP3 SWAP2 POP POP JUMP JUMPDEST PUSH32 0x4E6F7420612056616C69642041646D696E000000000000000000000000000000 PUSH1 0x0 DUP3 ADD MSTORE POP JUMP JUMPDEST PUSH1 0x0 PUSH2 0x8A0 PUSH1 0x11 DUP4 PUSH2 0x859 JUMP JUMPDEST SWAP2 POP PUSH2 0x8AB DUP3 PUSH2 0x86A JUMP JUMPDEST PUSH1 0x20 DUP3 ADD SWAP1 POP SWAP2 SWAP1 POP JUMP JUMPDEST PUSH1 0x0 PUSH1 0x20 DUP3 ADD SWAP1 POP DUP2 DUP2 SUB PUSH1 0x0 DUP4 ADD MSTORE PUSH2 0x8CF DUP2 PUSH2 0x893 JUMP JUMPDEST SWAP1 POP SWAP2 SWAP1 POP JUMP JUMPDEST PUSH32 0x416C726561647920417070726F76656421210000000000000000000000000000 PUSH1 0x0 DUP3 ADD MSTORE POP JUMP JUMPDEST PUSH1 0x0 PUSH2 0x90C PUSH1 0x12 DUP4 PUSH2 0x859 JUMP JUMPDEST SWAP2 POP PUSH2 0x917 DUP3 PUSH2 0x8D6 JUMP JUMPDEST PUSH1 0x20 DUP3 ADD SWAP1 POP SWAP2 SWAP1 POP JUMP JUMPDEST PUSH1 0x0 PUSH1 0x20 DUP3 ADD SWAP1 POP DUP2 DUP2 SUB PUSH1 0x0 DUP4 ADD MSTORE PUSH2 0x93B DUP2 PUSH2 0x8FF JUMP JUMPDEST SWAP1 POP SWAP2 SWAP1 POP JUMP JUMPDEST PUSH32 0x4E6F742061637469766500000000000000000000000000000000000000000000 PUSH1 0x0 DUP3 ADD MSTORE POP JUMP JUMPDEST PUSH1 0x0 PUSH2 0x978 PUSH1 0xA DUP4 PUSH2 0x859 JUMP JUMPDEST SWAP2 POP PUSH2 0x983 DUP3 PUSH2 0x942 JUMP JUMPDEST PUSH1 0x20 DUP3 ADD SWAP1 POP SWAP2 SWAP1 POP JUMP JUMPDEST PUSH1 0x0 PUSH1 0x20 DUP3 ADD SWAP1 POP DUP2 DUP2 SUB PUSH1 0x0 DUP4 ADD MSTORE PUSH2 0x9A7 DUP2 PUSH2 0x96B JUMP JUMPDEST SWAP1 POP SWAP2 SWAP1 POP JUMP JUMPDEST PUSH32 0x4E487B7100000000000000000000000000000000000000000000000000000000 PUSH1 0x0 MSTORE PUSH1 0x11 PUSH1 0x4 MSTORE PUSH1 0x24 PUSH1 0x0 REVERT JUMPDEST PUSH1 0x0 PUSH2 0x9E8 DUP3 PUSH2 0x685 JUMP JUMPDEST SWAP2 POP PUSH2 0x9F3 DUP4 PUSH2 0x685 JUMP JUMPDEST SWAP3 POP DUP3 PUSH32 0xFFFFFFFFFFFFFFFFFFFFFFFFFFFFFFFFFFFFFFFFFFFFFFFFFFFFFFFFFFFFFFFF SUB DUP3 GT ISZERO PUSH2 0xA28 JUMPI PUSH2 0xA27 PUSH2 0x9AE JUMP JUMPDEST JUMPDEST DUP3 DUP3 ADD SWAP1 POP SWAP3 SWAP2 POP POP JUMP JUMPDEST PUSH1 0x0 PUSH2 0xA3E DUP3 PUSH2 0x685 JUMP JUMPDEST SWAP2 POP PUSH32 0xFFFFFFFFFFFFFFFFFFFFFFFFFFFFFFFFFFFFFFFFFFFFFFFFFFFFFFFFFFFFFFFF DUP3 SUB PUSH2 0xA70 JUMPI PUSH2 0xA6F PUSH2 0x9AE JUMP JUMPDEST JUMPDEST PUSH1 0x1 DUP3 ADD SWAP1 POP SWAP2 SWAP1 POP JUMP JUMPDEST PUSH2 0xA84 DUP2 PUSH2 0x708 JUMP JUMPDEST DUP3 MSTORE POP POP JUMP JUMPDEST PUSH1 0x0 PUSH1 0x60 DUP3 ADD SWAP1 POP PUSH2 0xA9F PUSH1 0x0 DUP4 ADD DUP7 PUSH2 0xA7B JUMP JUMPDEST PUSH2 0xAAC PUSH1 0x20 DUP4 ADD DUP6 PUSH2 0xA7B JUMP JUMPDEST PUSH2 0xAB9 PUSH1 0x40 DUP4 ADD DUP5 PUSH2 0x82F JUMP JUMPDEST SWAP5 SWAP4 POP POP POP POP JUMP JUMPDEST PUSH1 0x0 PUSH2 0xACC DUP3 PUSH2 0x685 JUMP JUMPDEST SWAP2 POP PUSH2 0xAD7 DUP4 PUSH2 0x685 JUMP JUMPDEST SWAP3 POP DUP2 PUSH32 0xFFFFFFFFFFFFFFFFFFFFFFFFFFFFFFFFFFFFFFFFFFFFFFFFFFFFFFFFFFFFFFFF DIV DUP4 GT DUP3 ISZERO ISZERO AND ISZERO PUSH2 0xB10 JUMPI PUSH2 0xB0F PUSH2 0x9AE JUMP JUMPDEST JUMPDEST DUP3 DUP3 MUL SWAP1 POP SWAP3 SWAP2 POP POP JUMP JUMPDEST PUSH32 0x4E487B7100000000000000000000000000000000000000000000000000000000 PUSH1 0x0 MSTORE PUSH1 0x12 PUSH1 0x4 MSTORE PUSH1 0x24 PUSH1 0x0 REVERT JUMPDEST PUSH1 0x0 PUSH2 0xB55 DUP3 PUSH2 0x685 JUMP JUMPDEST SWAP2 POP PUSH2 0xB60 DUP4 PUSH2 0x685 JUMP JUMPDEST SWAP3 POP DUP3 PUSH2 0xB70 JUMPI PUSH2 0xB6F PUSH2 0xB1B JUMP JUMPDEST JUMPDEST DUP3 DUP3 DIV SWAP1 POP SWAP3 SWAP2 POP POP JUMP INVALID LOG2 PUSH5 0x6970667358 0x22 SLT KECCAK256 SWAP10 0xCB 0xAF MSTORE 0x25 REVERT PUSH9 0xC658FFB77E664BBF2F 0xDF NOT KECCAK256 0xAF PUSH27 0x8FC1139359667FF805477864736F6C634300080D00330000000000 "},"methodIdentifiers":{"AprroveTransaction(uint256)":"0ce5124e","calculateMinimumApproval()":"c8781155","createTransaction(uint256,address)":"7cf4c543","getTransaction(uint256)":"33ea3dc8"}}}}}