{"contracts/ballot.sol":{"Ballot":{"abi":[{"inputs":[],"stateMutability":"nonpayable","type":"constructor"},{"inputs":[{"internalType":"string","name":"_name","type":"string"}],"name":"addCategory","outputs":[],"stateMutability":"nonpayable","type":"function"},{"inputs":[],"name":"getVotingCategories","outputs":[{"components":[{"internalType":"string","name":"name","type":"string"},{"internalType":"uint256","name":"voteCount","type":"uint256"}],"internalType":"struct Ballot.Category[]","name":"","type":"tuple[]"}],"stateMutability":"view","type":"function"},{"inputs":[{"internalType":"address","name":"_voter","type":"address"}],"name":"giveRightToVote","outputs":[],"stateMutability":"nonpayable","type":"function"},{"inputs":[],"name":"moderator","outputs":[{"internalType":"address","name":"","type":"address"}],"stateMutability":"view","type":"function"},{"inputs":[{"internalType":"uint256","name":"_CategoryIndex","type":"uint256"}],"name":"vote","outputs":[],"stateMutability":"nonpayable","type":"function"},{"inputs":[{"internalType":"address","name":"","type":"address"}],"name":"voters","outputs":[{"internalType":"uint256","name":"noOfVotes","type":"uint256"},{"internalType":"bool","name":"hasVoted","type":"bool"},{"internalType":"uint256","name":"vote","type":"uint256"}],"stateMutability":"view","type":"function"},{"inputs":[{"internalType":"uint256","name":"","type":"uint256"}],"name":"votingCategories","outputs":[{"internalType":"string","name":"name","type":"string"},{"internalType":"uint256","name":"voteCount","type":"uint256"}],"stateMutability":"view","type":"function"},{"inputs":[],"name":"winningCategory","outputs":[{"internalType":"uint256","name":"winningCategory_","type":"uint256"}],"stateMutability":"view","type":"function"},{"inputs":[],"name":"winningCategoryName","outputs":[{"internalType":"string","name":"winningCategoryName_","type":"string"}],"stateMutability":"view","type":"function"},{"stateMutability":"payable","type":"receive"}],"evm":{"bytecode":{"linkReferences":{},"object":"608060405234801561001057600080fd5b50336000806101000a81548173ffffffffffffffffffffffffffffffffffffffff021916908373ffffffffffffffffffffffffffffffffffffffff16021790555060018060008060009054906101000a900473ffffffffffffffffffffffffffffffffffffffff1673ffffffffffffffffffffffffffffffffffffffff1673ffffffffffffffffffffffffffffffffffffffff16815260200190815260200160002060000181905550611316806100c86000396000f3fe60806040526004361061008a5760003560e01c80636fbb8640116100595780636fbb86401461013e5780639e7b8d611461017c578063a3ec138d146101a5578063d26e8313146101e4578063f167c2731461020f57610091565b80630121b93f146100965780632b6779b0146100bf5780632e0dcbf7146100ea578063387439041461011357610091565b3661009157005b600080fd5b3480156100a257600080fd5b506100bd60048036038101906100b89190610a27565b61023a565b005b3480156100cb57600080fd5b506100d461038a565b6040516100e19190610aed565b60405180910390f35b3480156100f657600080fd5b50610111600480360381019061010c9190610c44565b610446565b005b34801561011f57600080fd5b506101286104b3565b6040516101359190610cce565b60405180910390f35b34801561014a57600080fd5b5061016560048036038101906101609190610a27565b6104d7565b604051610173929190610cf8565b60405180910390f35b34801561018857600080fd5b506101a3600480360381019061019e9190610d54565b610593565b005b3480156101b157600080fd5b506101cc60048036038101906101c79190610d54565b610780565b6040516101db93929190610d9c565b60405180910390f35b3480156101f057600080fd5b506101f96107b7565b6040516102069190610dd3565b60405180910390f35b34801561021b57600080fd5b5061022461083f565b6040516102319190610f46565b60405180910390f35b6000600160003373ffffffffffffffffffffffffffffffffffffffff1673ffffffffffffffffffffffffffffffffffffffff168152602001908152602001600020905060008160000154116102c4576040517f08c379a00000000000000000000000000000000000000000000000000000000081526004016102bb90610fb4565b60405180910390fd5b8060010160009054906101000a900460ff1615610316576040517f08c379a000000000000000000000000000000000000000000000000000000000815260040161030d90611020565b60405180910390fd5b81816002018190555080600001546002838154811061033857610337611040565b5b90600052602060002090600202016001016000828254610358919061109e565b925050819055506000816000018190555060018160010160006101000a81548160ff0219169083151502179055505050565b606060026103966107b7565b815481106103a7576103a6611040565b5b906000526020600020906002020160000180546103c390611123565b80601f01602080910402602001604051908101604052809291908181526020018280546103ef90611123565b801561043c5780601f106104115761010080835404028352916020019161043c565b820191906000526020600020905b81548152906001019060200180831161041f57829003601f168201915b5050505050905090565b600260405180604001604052808381526020016000815250908060018154018082558091505060019003906000526020600020906002020160009091909190915060008201518160000190805190602001906104a392919061093a565b5060208201518160010155505050565b60008054906101000a900473ffffffffffffffffffffffffffffffffffffffff1681565b600281815481106104e757600080fd5b906000526020600020906002020160009150905080600001805461050a90611123565b80601f016020809104026020016040519081016040528092919081815260200182805461053690611123565b80156105835780601f1061055857610100808354040283529160200191610583565b820191906000526020600020905b81548152906001019060200180831161056657829003601f168201915b5050505050908060010154905082565b60008054906101000a900473ffffffffffffffffffffffffffffffffffffffff1673ffffffffffffffffffffffffffffffffffffffff163373ffffffffffffffffffffffffffffffffffffffff1614610621576040517f08c379a0000000000000000000000000000000000000000000000000000000008152600401610618906111a0565b60405180910390fd5b600160008273ffffffffffffffffffffffffffffffffffffffff1673ffffffffffffffffffffffffffffffffffffffff16815260200190815260200160002060010160009054906101000a900460ff16156106b1576040517f08c379a00000000000000000000000000000000000000000000000000000000081526004016106a89061120c565b60405180910390fd5b6000600160008373ffffffffffffffffffffffffffffffffffffffff1673ffffffffffffffffffffffffffffffffffffffff1681526020019081526020016000206000015414610736576040517f08c379a000000000000000000000000000000000000000000000000000000000815260040161072d90611278565b60405180910390fd5b60018060008373ffffffffffffffffffffffffffffffffffffffff1673ffffffffffffffffffffffffffffffffffffffff1681526020019081526020016000206000018190555050565b60016020528060005260406000206000915090508060000154908060010160009054906101000a900460ff16908060020154905083565b6000806000905060005b60028054905081101561083a5781600282815481106107e3576107e2611040565b5b9060005260206000209060020201600101541115610827576002818154811061080f5761080e611040565b5b90600052602060002090600202016001015491508092505b808061083290611298565b9150506107c1565b505090565b60606002805480602002602001604051908101604052809291908181526020016000905b82821015610931578382906000526020600020906002020160405180604001604052908160008201805461089690611123565b80601f01602080910402602001604051908101604052809291908181526020018280546108c290611123565b801561090f5780601f106108e45761010080835404028352916020019161090f565b820191906000526020600020905b8154815290600101906020018083116108f257829003601f168201915b5050505050815260200160018201548152505081526020019060010190610863565b50505050905090565b82805461094690611123565b90600052602060002090601f01602090048101928261096857600085556109af565b82601f1061098157805160ff19168380011785556109af565b828001600101855582156109af579182015b828111156109ae578251825591602001919060010190610993565b5b5090506109bc91906109c0565b5090565b5b808211156109d95760008160009055506001016109c1565b5090565b6000604051905090565b600080fd5b600080fd5b6000819050919050565b610a04816109f1565b8114610a0f57600080fd5b50565b600081359050610a21816109fb565b92915050565b600060208284031215610a3d57610a3c6109e7565b5b6000610a4b84828501610a12565b91505092915050565b600081519050919050565b600082825260208201905092915050565b60005b83811015610a8e578082015181840152602081019050610a73565b83811115610a9d576000848401525b50505050565b6000601f19601f8301169050919050565b6000610abf82610a54565b610ac98185610a5f565b9350610ad9818560208601610a70565b610ae281610aa3565b840191505092915050565b60006020820190508181036000830152610b078184610ab4565b905092915050565b600080fd5b600080fd5b7f4e487b7100000000000000000000000000000000000000000000000000000000600052604160045260246000fd5b610b5182610aa3565b810181811067ffffffffffffffff82111715610b7057610b6f610b19565b5b80604052505050565b6000610b836109dd565b9050610b8f8282610b48565b919050565b600067ffffffffffffffff821115610baf57610bae610b19565b5b610bb882610aa3565b9050602081019050919050565b82818337600083830152505050565b6000610be7610be284610b94565b610b79565b905082815260208101848484011115610c0357610c02610b14565b5b610c0e848285610bc5565b509392505050565b600082601f830112610c2b57610c2a610b0f565b5b8135610c3b848260208601610bd4565b91505092915050565b600060208284031215610c5a57610c596109e7565b5b600082013567ffffffffffffffff811115610c7857610c776109ec565b5b610c8484828501610c16565b91505092915050565b600073ffffffffffffffffffffffffffffffffffffffff82169050919050565b6000610cb882610c8d565b9050919050565b610cc881610cad565b82525050565b6000602082019050610ce36000830184610cbf565b92915050565b610cf2816109f1565b82525050565b60006040820190508181036000830152610d128185610ab4565b9050610d216020830184610ce9565b9392505050565b610d3181610cad565b8114610d3c57600080fd5b50565b600081359050610d4e81610d28565b92915050565b600060208284031215610d6a57610d696109e7565b5b6000610d7884828501610d3f565b91505092915050565b60008115159050919050565b610d9681610d81565b82525050565b6000606082019050610db16000830186610ce9565b610dbe6020830185610d8d565b610dcb6040830184610ce9565b949350505050565b6000602082019050610de86000830184610ce9565b92915050565b600081519050919050565b600082825260208201905092915050565b6000819050602082019050919050565b600082825260208201905092915050565b6000610e3682610a54565b610e408185610e1a565b9350610e50818560208601610a70565b610e5981610aa3565b840191505092915050565b610e6d816109f1565b82525050565b60006040830160008301518482036000860152610e908282610e2b565b9150506020830151610ea56020860182610e64565b508091505092915050565b6000610ebc8383610e73565b905092915050565b6000602082019050919050565b6000610edc82610dee565b610ee68185610df9565b935083602082028501610ef885610e0a565b8060005b85811015610f345784840389528151610f158582610eb0565b9450610f2083610ec4565b925060208a01995050600181019050610efc565b50829750879550505050505092915050565b60006020820190508181036000830152610f608184610ed1565b905092915050565b7f766f74657220686173206e6f20726967687420746f20766f7465000000000000600082015250565b6000610f9e601a83610a5f565b9150610fa982610f68565b602082019050919050565b60006020820190508181036000830152610fcd81610f91565b9050919050565b7f766f7465722068617320616c726561647920766f746564000000000000000000600082015250565b600061100a601783610a5f565b915061101582610fd4565b602082019050919050565b6000602082019050818103600083015261103981610ffd565b9050919050565b7f4e487b7100000000000000000000000000000000000000000000000000000000600052603260045260246000fd5b7f4e487b7100000000000000000000000000000000000000000000000000000000600052601160045260246000fd5b60006110a9826109f1565b91506110b4836109f1565b9250827fffffffffffffffffffffffffffffffffffffffffffffffffffffffffffffffff038211156110e9576110e861106f565b5b828201905092915050565b7f4e487b7100000000000000000000000000000000000000000000000000000000600052602260045260246000fd5b6000600282049050600182168061113b57607f821691505b60208210810361114e5761114d6110f4565b5b50919050565b7f4f6e6c79206d6f64657261746f72206861732061636365737300000000000000600082015250565b600061118a601983610a5f565b915061119582611154565b602082019050919050565b600060208201905081810360008301526111b98161117d565b9050919050565b7f54686520766f74657220616c726561647920766f746564000000000000000000600082015250565b60006111f6601783610a5f565b9150611201826111c0565b602082019050919050565b60006020820190508181036000830152611225816111e9565b9050919050565b7f566f7465722063616e277420766f746500000000000000000000000000000000600082015250565b6000611262601083610a5f565b915061126d8261122c565b602082019050919050565b6000602082019050818103600083015261129181611255565b9050919050565b60006112a3826109f1565b91507fffffffffffffffffffffffffffffffffffffffffffffffffffffffffffffffff82036112d5576112d461106f565b5b60018201905091905056fea26469706673582212207ed0c4e7ee8af54c28b14c71b5fc03c7c9ae08da639a79581feb28fc8dc722a564736f6c634300080d0033","opcodes":"PUSH1 0x80 PUSH1 0x40 MSTORE CALLVALUE DUP1 ISZERO PUSH2 0x10 JUMPI PUSH1 0x0 DUP1 REVERT JUMPDEST POP CALLER PUSH1 0x0 DUP1 PUSH2 0x100 EXP DUP2 SLOAD DUP2 PUSH20 0xFFFFFFFFFFFFFFFFFFFFFFFFFFFFFFFFFFFFFFFF MUL NOT AND SWAP1 DUP4 PUSH20 0xFFFFFFFFFFFFFFFFFFFFFFFFFFFFFFFFFFFFFFFF AND MUL OR SWAP1 SSTORE POP PUSH1 0x1 DUP1 PUSH1 0x0 DUP1 PUSH1 0x0 SWAP1 SLOAD SWAP1 PUSH2 0x100 EXP SWAP1 DIV PUSH20 0xFFFFFFFFFFFFFFFFFFFFFFFFFFFFFFFFFFFFFFFF AND PUSH20 0xFFFFFFFFFFFFFFFFFFFFFFFFFFFFFFFFFFFFFFFF AND PUSH20 0xFFFFFFFFFFFFFFFFFFFFFFFFFFFFFFFFFFFFFFFF AND DUP2 MSTORE PUSH1 0x20 ADD SWAP1 DUP2 MSTORE PUSH1 0x20 ADD PUSH1 0x0 KECCAK256 PUSH1 0x0 ADD DUP2 SWAP1 SSTORE POP PUSH2 0x1316 DUP1 PUSH2 0xC8 PUSH1 0x0 CODECOPY PUSH1 0x0 RETURN INVALID PUSH1 0x80 PUSH1 0x40 MSTORE PUSH1 0x4 CALLDATASIZE LT PUSH2 0x8A JUMPI PUSH1 0x0 CALLDATALOAD PUSH1 0xE0 SHR DUP1 PUSH4 0x6FBB8640 GT PUSH2 0x59 JUMPI DUP1 PUSH4 0x6FBB8640 EQ PUSH2 0x13E JUMPI DUP1 PUSH4 0x9E7B8D61 EQ PUSH2 0x17C JUMPI DUP1 PUSH4 0xA3EC138D EQ PUSH2 0x1A5 JUMPI DUP1 PUSH4 0xD26E8313 EQ PUSH2 0x1E4 JUMPI DUP1 PUSH4 0xF167C273 EQ PUSH2 0x20F JUMPI PUSH2 0x91 JUMP JUMPDEST DUP1 PUSH4 0x121B93F EQ PUSH2 0x96 JUMPI DUP1 PUSH4 0x2B6779B0 EQ PUSH2 0xBF JUMPI DUP1 PUSH4 0x2E0DCBF7 EQ PUSH2 0xEA JUMPI DUP1 PUSH4 0x38743904 EQ PUSH2 0x113 JUMPI PUSH2 0x91 JUMP JUMPDEST CALLDATASIZE PUSH2 0x91 JUMPI STOP JUMPDEST PUSH1 0x0 DUP1 REVERT JUMPDEST CALLVALUE DUP1 ISZERO PUSH2 0xA2 JUMPI PUSH1 0x0 DUP1 REVERT JUMPDEST POP PUSH2 0xBD PUSH1 0x4 DUP1 CALLDATASIZE SUB DUP2 ADD SWAP1 PUSH2 0xB8 SWAP2 SWAP1 PUSH2 0xA27 JUMP JUMPDEST PUSH2 0x23A JUMP JUMPDEST STOP JUMPDEST CALLVALUE DUP1 ISZERO PUSH2 0xCB JUMPI PUSH1 0x0 DUP1 REVERT JUMPDEST POP PUSH2 0xD4 PUSH2 0x38A JUMP JUMPDEST PUSH1 0x40 MLOAD PUSH2 0xE1 SWAP2 SWAP1 PUSH2 0xAED JUMP JUMPDEST PUSH1 0x40 MLOAD DUP1 SWAP2 SUB SWAP1 RETURN JUMPDEST CALLVALUE DUP1 ISZERO PUSH2 0xF6 JUMPI PUSH1 0x0 DUP1 REVERT JUMPDEST POP PUSH2 0x111 PUSH1 0x4 DUP1 CALLDATASIZE SUB DUP2 ADD SWAP1 PUSH2 0x10C SWAP2 SWAP1 PUSH2 0xC44 JUMP JUMPDEST PUSH2 0x446 JUMP JUMPDEST STOP JUMPDEST CALLVALUE DUP1 ISZERO PUSH2 0x11F JUMPI PUSH1 0x0 DUP1 REVERT JUMPDEST POP PUSH2 0x128 PUSH2 0x4B3 JUMP JUMPDEST PUSH1 0x40 MLOAD PUSH2 0x135 SWAP2 SWAP1 PUSH2 0xCCE JUMP JUMPDEST PUSH1 0x40 MLOAD DUP1 SWAP2 SUB SWAP1 RETURN JUMPDEST CALLVALUE DUP1 ISZERO PUSH2 0x14A JUMPI PUSH1 0x0 DUP1 REVERT JUMPDEST POP PUSH2 0x165 PUSH1 0x4 DUP1 CALLDATASIZE SUB DUP2 ADD SWAP1 PUSH2 0x160 SWAP2 SWAP1 PUSH2 0xA27 JUMP JUMPDEST PUSH2 0x4D7 JUMP JUMPDEST PUSH1 0x40 MLOAD PUSH2 0x173 SWAP3 SWAP2 SWAP1 PUSH2 0xCF8 JUMP JUMPDEST PUSH1 0x40 MLOAD DUP1 SWAP2 SUB SWAP1 RETURN JUMPDEST CALLVALUE DUP1 ISZERO PUSH2 0x188 JUMPI PUSH1 0x0 DUP1 REVERT JUMPDEST POP PUSH2 0x1A3 PUSH1 0x4 DUP1 CALLDATASIZE SUB DUP2 ADD SWAP1 PUSH2 0x19E SWAP2 SWAP1 PUSH2 0xD54 JUMP JUMPDEST PUSH2 0x593 JUMP JUMPDEST STOP JUMPDEST CALLVALUE DUP1 ISZERO PUSH2 0x1B1 JUMPI PUSH1 0x0 DUP1 REVERT JUMPDEST POP PUSH2 0x1CC PUSH1 0x4 DUP1 CALLDATASIZE SUB DUP2 ADD SWAP1 PUSH2 0x1C7 SWAP2 SWAP1 PUSH2 0xD54 JUMP JUMPDEST PUSH2 0x780 JUMP JUMPDEST PUSH1 0x40 MLOAD PUSH2 0x1DB SWAP4 SWAP3 SWAP2 SWAP1 PUSH2 0xD9C JUMP JUMPDEST PUSH1 0x40 MLOAD DUP1 SWAP2 SUB SWAP1 RETURN JUMPDEST CALLVALUE DUP1 ISZERO PUSH2 0x1F0 JUMPI PUSH1 0x0 DUP1 REVERT JUMPDEST POP PUSH2 0x1F9 PUSH2 0x7B7 JUMP JUMPDEST PUSH1 0x40 MLOAD PUSH2 0x206 SWAP2 SWAP1 PUSH2 0xDD3 JUMP JUMPDEST PUSH1 0x40 MLOAD DUP1 SWAP2 SUB SWAP1 RETURN JUMPDEST CALLVALUE DUP1 ISZERO PUSH2 0x21B JUMPI PUSH1 0x0 DUP1 REVERT JUMPDEST POP PUSH2 0x224 PUSH2 0x83F JUMP JUMPDEST PUSH1 0x40 MLOAD PUSH2 0x231 SWAP2 SWAP1 PUSH2 0xF46 JUMP JUMPDEST PUSH1 0x40 MLOAD DUP1 SWAP2 SUB SWAP1 RETURN JUMPDEST PUSH1 0x0 PUSH1 0x1 PUSH1 0x0 CALLER PUSH20 0xFFFFFFFFFFFFFFFFFFFFFFFFFFFFFFFFFFFFFFFF AND PUSH20 0xFFFFFFFFFFFFFFFFFFFFFFFFFFFFFFFFFFFFFFFF AND DUP2 MSTORE PUSH1 0x20 ADD SWAP1 DUP2 MSTORE PUSH1 0x20 ADD PUSH1 0x0 KECCAK256 SWAP1 POP PUSH1 0x0 DUP2 PUSH1 0x0 ADD SLOAD GT PUSH2 0x2C4 JUMPI PUSH1 0x40 MLOAD PUSH32 0x8C379A000000000000000000000000000000000000000000000000000000000 DUP2 MSTORE PUSH1 0x4 ADD PUSH2 0x2BB SWAP1 PUSH2 0xFB4 JUMP JUMPDEST PUSH1 0x40 MLOAD DUP1 SWAP2 SUB SWAP1 REVERT JUMPDEST DUP1 PUSH1 0x1 ADD PUSH1 0x0 SWAP1 SLOAD SWAP1 PUSH2 0x100 EXP SWAP1 DIV PUSH1 0xFF AND ISZERO PUSH2 0x316 JUMPI PUSH1 0x40 MLOAD PUSH32 0x8C379A000000000000000000000000000000000000000000000000000000000 DUP2 MSTORE PUSH1 0x4 ADD PUSH2 0x30D SWAP1 PUSH2 0x1020 JUMP JUMPDEST PUSH1 0x40 MLOAD DUP1 SWAP2 SUB SWAP1 REVERT JUMPDEST DUP2 DUP2 PUSH1 0x2 ADD DUP2 SWAP1 SSTORE POP DUP1 PUSH1 0x0 ADD SLOAD PUSH1 0x2 DUP4 DUP2 SLOAD DUP2 LT PUSH2 0x338 JUMPI PUSH2 0x337 PUSH2 0x1040 JUMP JUMPDEST JUMPDEST SWAP1 PUSH1 0x0 MSTORE PUSH1 0x20 PUSH1 0x0 KECCAK256 SWAP1 PUSH1 0x2 MUL ADD PUSH1 0x1 ADD PUSH1 0x0 DUP3 DUP3 SLOAD PUSH2 0x358 SWAP2 SWAP1 PUSH2 0x109E JUMP JUMPDEST SWAP3 POP POP DUP2 SWAP1 SSTORE POP PUSH1 0x0 DUP2 PUSH1 0x0 ADD DUP2 SWAP1 SSTORE POP PUSH1 0x1 DUP2 PUSH1 0x1 ADD PUSH1 0x0 PUSH2 0x100 EXP DUP2 SLOAD DUP2 PUSH1 0xFF MUL NOT AND SWAP1 DUP4 ISZERO ISZERO MUL OR SWAP1 SSTORE POP POP POP JUMP JUMPDEST PUSH1 0x60 PUSH1 0x2 PUSH2 0x396 PUSH2 0x7B7 JUMP JUMPDEST DUP2 SLOAD DUP2 LT PUSH2 0x3A7 JUMPI PUSH2 0x3A6 PUSH2 0x1040 JUMP JUMPDEST JUMPDEST SWAP1 PUSH1 0x0 MSTORE PUSH1 0x20 PUSH1 0x0 KECCAK256 SWAP1 PUSH1 0x2 MUL ADD PUSH1 0x0 ADD DUP1 SLOAD PUSH2 0x3C3 SWAP1 PUSH2 0x1123 JUMP JUMPDEST DUP1 PUSH1 0x1F ADD PUSH1 0x20 DUP1 SWAP2 DIV MUL PUSH1 0x20 ADD PUSH1 0x40 MLOAD SWAP1 DUP2 ADD PUSH1 0x40 MSTORE DUP1 SWAP3 SWAP2 SWAP1 DUP2 DUP2 MSTORE PUSH1 0x20 ADD DUP3 DUP1 SLOAD PUSH2 0x3EF SWAP1 PUSH2 0x1123 JUMP JUMPDEST DUP1 ISZERO PUSH2 0x43C JUMPI DUP1 PUSH1 0x1F LT PUSH2 0x411 JUMPI PUSH2 0x100 DUP1 DUP4 SLOAD DIV MUL DUP4 MSTORE SWAP2 PUSH1 0x20 ADD SWAP2 PUSH2 0x43C JUMP JUMPDEST DUP3 ADD SWAP2 SWAP1 PUSH1 0x0 MSTORE PUSH1 0x20 PUSH1 0x0 KECCAK256 SWAP1 JUMPDEST DUP2 SLOAD DUP2 MSTORE SWAP1 PUSH1 0x1 ADD SWAP1 PUSH1 0x20 ADD DUP1 DUP4 GT PUSH2 0x41F JUMPI DUP3 SWAP1 SUB PUSH1 0x1F AND DUP3 ADD SWAP2 JUMPDEST POP POP POP POP POP SWAP1 POP SWAP1 JUMP JUMPDEST PUSH1 0x2 PUSH1 0x40 MLOAD DUP1 PUSH1 0x40 ADD PUSH1 0x40 MSTORE DUP1 DUP4 DUP2 MSTORE PUSH1 0x20 ADD PUSH1 0x0 DUP2 MSTORE POP SWAP1 DUP1 PUSH1 0x1 DUP2 SLOAD ADD DUP1 DUP3 SSTORE DUP1 SWAP2 POP POP PUSH1 0x1 SWAP1 SUB SWAP1 PUSH1 0x0 MSTORE PUSH1 0x20 PUSH1 0x0 KECCAK256 SWAP1 PUSH1 0x2 MUL ADD PUSH1 0x0 SWAP1 SWAP2 SWAP1 SWAP2 SWAP1 SWAP2 POP PUSH1 0x0 DUP3 ADD MLOAD DUP2 PUSH1 0x0 ADD SWAP1 DUP1 MLOAD SWAP1 PUSH1 0x20 ADD SWAP1 PUSH2 0x4A3 SWAP3 SWAP2 SWAP1 PUSH2 0x93A JUMP JUMPDEST POP PUSH1 0x20 DUP3 ADD MLOAD DUP2 PUSH1 0x1 ADD SSTORE POP POP POP JUMP JUMPDEST PUSH1 0x0 DUP1 SLOAD SWAP1 PUSH2 0x100 EXP SWAP1 DIV PUSH20 0xFFFFFFFFFFFFFFFFFFFFFFFFFFFFFFFFFFFFFFFF AND DUP2 JUMP JUMPDEST PUSH1 0x2 DUP2 DUP2 SLOAD DUP2 LT PUSH2 0x4E7 JUMPI PUSH1 0x0 DUP1 REVERT JUMPDEST SWAP1 PUSH1 0x0 MSTORE PUSH1 0x20 PUSH1 0x0 KECCAK256 SWAP1 PUSH1 0x2 MUL ADD PUSH1 0x0 SWAP2 POP SWAP1 POP DUP1 PUSH1 0x0 ADD DUP1 SLOAD PUSH2 0x50A SWAP1 PUSH2 0x1123 JUMP JUMPDEST DUP1 PUSH1 0x1F ADD PUSH1 0x20 DUP1 SWAP2 DIV MUL PUSH1 0x20 ADD PUSH1 0x40 MLOAD SWAP1 DUP2 ADD PUSH1 0x40 MSTORE DUP1 SWAP3 SWAP2 SWAP1 DUP2 DUP2 MSTORE PUSH1 0x20 ADD DUP3 DUP1 SLOAD PUSH2 0x536 SWAP1 PUSH2 0x1123 JUMP JUMPDEST DUP1 ISZERO PUSH2 0x583 JUMPI DUP1 PUSH1 0x1F LT PUSH2 0x558 JUMPI PUSH2 0x100 DUP1 DUP4 SLOAD DIV MUL DUP4 MSTORE SWAP2 PUSH1 0x20 ADD SWAP2 PUSH2 0x583 JUMP JUMPDEST DUP3 ADD SWAP2 SWAP1 PUSH1 0x0 MSTORE PUSH1 0x20 PUSH1 0x0 KECCAK256 SWAP1 JUMPDEST DUP2 SLOAD DUP2 MSTORE SWAP1 PUSH1 0x1 ADD SWAP1 PUSH1 0x20 ADD DUP1 DUP4 GT PUSH2 0x566 JUMPI DUP3 SWAP1 SUB PUSH1 0x1F AND DUP3 ADD SWAP2 JUMPDEST POP POP POP POP POP SWAP1 DUP1 PUSH1 0x1 ADD SLOAD SWAP1 POP DUP3 JUMP JUMPDEST PUSH1 0x0 DUP1 SLOAD SWAP1 PUSH2 0x100 EXP SWAP1 DIV PUSH20 0xFFFFFFFFFFFFFFFFFFFFFFFFFFFFFFFFFFFFFFFF AND PUSH20 0xFFFFFFFFFFFFFFFFFFFFFFFFFFFFFFFFFFFFFFFF AND CALLER PUSH20 0xFFFFFFFFFFFFFFFFFFFFFFFFFFFFFFFFFFFFFFFF AND EQ PUSH2 0x621 JUMPI PUSH1 0x40 MLOAD PUSH32 0x8C379A000000000000000000000000000000000000000000000000000000000 DUP2 MSTORE PUSH1 0x4 ADD PUSH2 0x618 SWAP1 PUSH2 0x11A0 JUMP JUMPDEST PUSH1 0x40 MLOAD DUP1 SWAP2 SUB SWAP1 REVERT JUMPDEST PUSH1 0x1 PUSH1 0x0 DUP3 PUSH20 0xFFFFFFFFFFFFFFFFFFFFFFFFFFFFFFFFFFFFFFFF AND PUSH20 0xFFFFFFFFFFFFFFFFFFFFFFFFFFFFFFFFFFFFFFFF AND DUP2 MSTORE PUSH1 0x20 ADD SWAP1 DUP2 MSTORE PUSH1 0x20 ADD PUSH1 0x0 KECCAK256 PUSH1 0x1 ADD PUSH1 0x0 SWAP1 SLOAD SWAP1 PUSH2 0x100 EXP SWAP1 DIV PUSH1 0xFF AND ISZERO PUSH2 0x6B1 JUMPI PUSH1 0x40 MLOAD PUSH32 0x8C379A000000000000000000000000000000000000000000000000000000000 DUP2 MSTORE PUSH1 0x4 ADD PUSH2 0x6A8 SWAP1 PUSH2 0x120C JUMP JUMPDEST PUSH1 0x40 MLOAD DUP1 SWAP2 SUB SWAP1 REVERT JUMPDEST PUSH1 0x0 PUSH1 0x1 PUSH1 0x0 DUP4 PUSH20 0xFFFFFFFFFFFFFFFFFFFFFFFFFFFFFFFFFFFFFFFF AND PUSH20 0xFFFFFFFFFFFFFFFFFFFFFFFFFFFFFFFFFFFFFFFF AND DUP2 MSTORE PUSH1 0x20 ADD SWAP1 DUP2 MSTORE PUSH1 0x20 ADD PUSH1 0x0 KECCAK256 PUSH1 0x0 ADD SLOAD EQ PUSH2 0x736 JUMPI PUSH1 0x40 MLOAD PUSH32 0x8C379A000000000000000000000000000000000000000000000000000000000 DUP2 MSTORE PUSH1 0x4 ADD PUSH2 0x72D SWAP1 PUSH2 0x1278 JUMP JUMPDEST PUSH1 0x40 MLOAD DUP1 SWAP2 SUB SWAP1 REVERT JUMPDEST PUSH1 0x1 DUP1 PUSH1 0x0 DUP4 PUSH20 0xFFFFFFFFFFFFFFFFFFFFFFFFFFFFFFFFFFFFFFFF AND PUSH20 0xFFFFFFFFFFFFFFFFFFFFFFFFFFFFFFFFFFFFFFFF AND DUP2 MSTORE PUSH1 0x20 ADD SWAP1 DUP2 MSTORE PUSH1 0x20 ADD PUSH1 0x0 KECCAK256 PUSH1 0x0 ADD DUP2 SWAP1 SSTORE POP POP JUMP JUMPDEST PUSH1 0x1 PUSH1 0x20 MSTORE DUP1 PUSH1 0x0 MSTORE PUSH1 0x40 PUSH1 0x0 KECCAK256 PUSH1 0x0 SWAP2 POP SWAP1 POP DUP1 PUSH1 0x0 ADD SLOAD SWAP1 DUP1 PUSH1 0x1 ADD PUSH1 0x0 SWAP1 SLOAD SWAP1 PUSH2 0x100 EXP SWAP1 DIV PUSH1 0xFF AND SWAP1 DUP1 PUSH1 0x2 ADD SLOAD SWAP1 POP DUP4 JUMP JUMPDEST PUSH1 0x0 DUP1 PUSH1 0x0 SWAP1 POP PUSH1 0x0 JUMPDEST PUSH1 0x2 DUP1 SLOAD SWAP1 POP DUP2 LT ISZERO PUSH2 0x83A JUMPI DUP2 PUSH1 0x2 DUP3 DUP2 SLOAD DUP2 LT PUSH2 0x7E3 JUMPI PUSH2 0x7E2 PUSH2 0x1040 JUMP JUMPDEST JUMPDEST SWAP1 PUSH1 0x0 MSTORE PUSH1 0x20 PUSH1 0x0 KECCAK256 SWAP1 PUSH1 0x2 MUL ADD PUSH1 0x1 ADD SLOAD GT ISZERO PUSH2 0x827 JUMPI PUSH1 0x2 DUP2 DUP2 SLOAD DUP2 LT PUSH2 0x80F JUMPI PUSH2 0x80E PUSH2 0x1040 JUMP JUMPDEST JUMPDEST SWAP1 PUSH1 0x0 MSTORE PUSH1 0x20 PUSH1 0x0 KECCAK256 SWAP1 PUSH1 0x2 MUL ADD PUSH1 0x1 ADD SLOAD SWAP2 POP DUP1 SWAP3 POP JUMPDEST DUP1 DUP1 PUSH2 0x832 SWAP1 PUSH2 0x1298 JUMP JUMPDEST SWAP2 POP POP PUSH2 0x7C1 JUMP JUMPDEST POP POP SWAP1 JUMP JUMPDEST PUSH1 0x60 PUSH1 0x2 DUP1 SLOAD DUP1 PUSH1 0x20 MUL PUSH1 0x20 ADD PUSH1 0x40 MLOAD SWAP1 DUP2 ADD PUSH1 0x40 MSTORE DUP1 SWAP3 SWAP2 SWAP1 DUP2 DUP2 MSTORE PUSH1 0x20 ADD PUSH1 0x0 SWAP1 JUMPDEST DUP3 DUP3 LT ISZERO PUSH2 0x931 JUMPI DUP4 DUP3 SWAP1 PUSH1 0x0 MSTORE PUSH1 0x20 PUSH1 0x0 KECCAK256 SWAP1 PUSH1 0x2 MUL ADD PUSH1 0x40 MLOAD DUP1 PUSH1 0x40 ADD PUSH1 0x40 MSTORE SWAP1 DUP2 PUSH1 0x0 DUP3 ADD DUP1 SLOAD PUSH2 0x896 SWAP1 PUSH2 0x1123 JUMP JUMPDEST DUP1 PUSH1 0x1F ADD PUSH1 0x20 DUP1 SWAP2 DIV MUL PUSH1 0x20 ADD PUSH1 0x40 MLOAD SWAP1 DUP2 ADD PUSH1 0x40 MSTORE DUP1 SWAP3 SWAP2 SWAP1 DUP2 DUP2 MSTORE PUSH1 0x20 ADD DUP3 DUP1 SLOAD PUSH2 0x8C2 SWAP1 PUSH2 0x1123 JUMP JUMPDEST DUP1 ISZERO PUSH2 0x90F JUMPI DUP1 PUSH1 0x1F LT PUSH2 0x8E4 JUMPI PUSH2 0x100 DUP1 DUP4 SLOAD DIV MUL DUP4 MSTORE SWAP2 PUSH1 0x20 ADD SWAP2 PUSH2 0x90F JUMP JUMPDEST DUP3 ADD SWAP2 SWAP1 PUSH1 0x0 MSTORE PUSH1 0x20 PUSH1 0x0 KECCAK256 SWAP1 JUMPDEST DUP2 SLOAD DUP2 MSTORE SWAP1 PUSH1 0x1 ADD SWAP1 PUSH1 0x20 ADD DUP1 DUP4 GT PUSH2 0x8F2 JUMPI DUP3 SWAP1 SUB PUSH1 0x1F AND DUP3 ADD SWAP2 JUMPDEST POP POP POP POP POP DUP2 MSTORE PUSH1 0x20 ADD PUSH1 0x1 DUP3 ADD SLOAD DUP2 MSTORE POP POP DUP2 MSTORE PUSH1 0x20 ADD SWAP1 PUSH1 0x1 ADD SWAP1 PUSH2 0x863 JUMP JUMPDEST POP POP POP POP SWAP1 POP SWAP1 JUMP JUMPDEST DUP3 DUP1 SLOAD PUSH2 0x946 SWAP1 PUSH2 0x1123 JUMP JUMPDEST SWAP1 PUSH1 0x0 MSTORE PUSH1 0x20 PUSH1 0x0 KECCAK256 SWAP1 PUSH1 0x1F ADD PUSH1 0x20 SWAP1 DIV DUP2 ADD SWAP3 DUP3 PUSH2 0x968 JUMPI PUSH1 0x0 DUP6 SSTORE PUSH2 0x9AF JUMP JUMPDEST DUP3 PUSH1 0x1F LT PUSH2 0x981 JUMPI DUP1 MLOAD PUSH1 0xFF NOT AND DUP4 DUP1 ADD OR DUP6 SSTORE PUSH2 0x9AF JUMP JUMPDEST DUP3 DUP1 ADD PUSH1 0x1 ADD DUP6 SSTORE DUP3 ISZERO PUSH2 0x9AF JUMPI SWAP2 DUP3 ADD JUMPDEST DUP3 DUP2 GT ISZERO PUSH2 0x9AE JUMPI DUP3 MLOAD DUP3 SSTORE SWAP2 PUSH1 0x20 ADD SWAP2 SWAP1 PUSH1 0x1 ADD SWAP1 PUSH2 0x993 JUMP JUMPDEST JUMPDEST POP SWAP1 POP PUSH2 0x9BC SWAP2 SWAP1 PUSH2 0x9C0 JUMP JUMPDEST POP SWAP1 JUMP JUMPDEST JUMPDEST DUP1 DUP3 GT ISZERO PUSH2 0x9D9 JUMPI PUSH1 0x0 DUP2 PUSH1 0x0 SWAP1 SSTORE POP PUSH1 0x1 ADD PUSH2 0x9C1 JUMP JUMPDEST POP SWAP1 JUMP JUMPDEST PUSH1 0x0 PUSH1 0x40 MLOAD SWAP1 POP SWAP1 JUMP JUMPDEST PUSH1 0x0 DUP1 REVERT JUMPDEST PUSH1 0x0 DUP1 REVERT JUMPDEST PUSH1 0x0 DUP2 SWAP1 POP SWAP2 SWAP1 POP JUMP JUMPDEST PUSH2 0xA04 DUP2 PUSH2 0x9F1 JUMP JUMPDEST DUP2 EQ PUSH2 0xA0F JUMPI PUSH1 0x0 DUP1 REVERT JUMPDEST POP JUMP JUMPDEST PUSH1 0x0 DUP2 CALLDATALOAD SWAP1 POP PUSH2 0xA21 DUP2 PUSH2 0x9FB JUMP JUMPDEST SWAP3 SWAP2 POP POP JUMP JUMPDEST PUSH1 0x0 PUSH1 0x20 DUP3 DUP5 SUB SLT ISZERO PUSH2 0xA3D JUMPI PUSH2 0xA3C PUSH2 0x9E7 JUMP JUMPDEST JUMPDEST PUSH1 0x0 PUSH2 0xA4B DUP5 DUP3 DUP6 ADD PUSH2 0xA12 JUMP JUMPDEST SWAP2 POP POP SWAP3 SWAP2 POP POP JUMP JUMPDEST PUSH1 0x0 DUP2 MLOAD SWAP1 POP SWAP2 SWAP1 POP JUMP JUMPDEST PUSH1 0x0 DUP3 DUP3 MSTORE PUSH1 0x20 DUP3 ADD SWAP1 POP SWAP3 SWAP2 POP POP JUMP JUMPDEST PUSH1 0x0 JUMPDEST DUP4 DUP2 LT ISZERO PUSH2 0xA8E JUMPI DUP1 DUP3 ADD MLOAD DUP2 DUP5 ADD MSTORE PUSH1 0x20 DUP2 ADD SWAP1 POP PUSH2 0xA73 JUMP JUMPDEST DUP4 DUP2 GT ISZERO PUSH2 0xA9D JUMPI PUSH1 0x0 DUP5 DUP5 ADD MSTORE JUMPDEST POP POP POP POP JUMP JUMPDEST PUSH1 0x0 PUSH1 0x1F NOT PUSH1 0x1F DUP4 ADD AND SWAP1 POP SWAP2 SWAP1 POP JUMP JUMPDEST PUSH1 0x0 PUSH2 0xABF DUP3 PUSH2 0xA54 JUMP JUMPDEST PUSH2 0xAC9 DUP2 DUP6 PUSH2 0xA5F JUMP JUMPDEST SWAP4 POP PUSH2 0xAD9 DUP2 DUP6 PUSH1 0x20 DUP7 ADD PUSH2 0xA70 JUMP JUMPDEST PUSH2 0xAE2 DUP2 PUSH2 0xAA3 JUMP JUMPDEST DUP5 ADD SWAP2 POP POP SWAP3 SWAP2 POP POP JUMP JUMPDEST PUSH1 0x0 PUSH1 0x20 DUP3 ADD SWAP1 POP DUP2 DUP2 SUB PUSH1 0x0 DUP4 ADD MSTORE PUSH2 0xB07 DUP2 DUP5 PUSH2 0xAB4 JUMP JUMPDEST SWAP1 POP SWAP3 SWAP2 POP POP JUMP JUMPDEST PUSH1 0x0 DUP1 REVERT JUMPDEST PUSH1 0x0 DUP1 REVERT JUMPDEST PUSH32 0x4E487B7100000000000000000000000000000000000000000000000000000000 PUSH1 0x0 MSTORE PUSH1 0x41 PUSH1 0x4 MSTORE PUSH1 0x24 PUSH1 0x0 REVERT JUMPDEST PUSH2 0xB51 DUP3 PUSH2 0xAA3 JUMP JUMPDEST DUP2 ADD DUP2 DUP2 LT PUSH8 0xFFFFFFFFFFFFFFFF DUP3 GT OR ISZERO PUSH2 0xB70 JUMPI PUSH2 0xB6F PUSH2 0xB19 JUMP JUMPDEST JUMPDEST DUP1 PUSH1 0x40 MSTORE POP POP POP JUMP JUMPDEST PUSH1 0x0 PUSH2 0xB83 PUSH2 0x9DD JUMP JUMPDEST SWAP1 POP PUSH2 0xB8F DUP3 DUP3 PUSH2 0xB48 JUMP JUMPDEST SWAP2 SWAP1 POP JUMP JUMPDEST PUSH1 0x0 PUSH8 0xFFFFFFFFFFFFFFFF DUP3 GT ISZERO PUSH2 0xBAF JUMPI PUSH2 0xBAE PUSH2 0xB19 JUMP JUMPDEST JUMPDEST PUSH2 0xBB8 DUP3 PUSH2 0xAA3 JUMP JUMPDEST SWAP1 POP PUSH1 0x20 DUP2 ADD SWAP1 POP SWAP2 SWAP1 POP JUMP JUMPDEST DUP3 DUP2 DUP4 CALLDATACOPY PUSH1 0x0 DUP4 DUP4 ADD MSTORE POP POP POP JUMP JUMPDEST PUSH1 0x0 PUSH2 0xBE7 PUSH2 0xBE2 DUP5 PUSH2 0xB94 JUMP JUMPDEST PUSH2 0xB79 JUMP JUMPDEST SWAP1 POP DUP3 DUP2 MSTORE PUSH1 0x20 DUP2 ADD DUP5 DUP5 DUP5 ADD GT ISZERO PUSH2 0xC03 JUMPI PUSH2 0xC02 PUSH2 0xB14 JUMP JUMPDEST JUMPDEST PUSH2 0xC0E DUP5 DUP3 DUP6 PUSH2 0xBC5 JUMP JUMPDEST POP SWAP4 SWAP3 POP POP POP JUMP JUMPDEST PUSH1 0x0 DUP3 PUSH1 0x1F DUP4 ADD SLT PUSH2 0xC2B JUMPI PUSH2 0xC2A PUSH2 0xB0F JUMP JUMPDEST JUMPDEST DUP2 CALLDATALOAD PUSH2 0xC3B DUP5 DUP3 PUSH1 0x20 DUP7 ADD PUSH2 0xBD4 JUMP JUMPDEST SWAP2 POP POP SWAP3 SWAP2 POP POP JUMP JUMPDEST PUSH1 0x0 PUSH1 0x20 DUP3 DUP5 SUB SLT ISZERO PUSH2 0xC5A JUMPI PUSH2 0xC59 PUSH2 0x9E7 JUMP JUMPDEST JUMPDEST PUSH1 0x0 DUP3 ADD CALLDATALOAD PUSH8 0xFFFFFFFFFFFFFFFF DUP2 GT ISZERO PUSH2 0xC78 JUMPI PUSH2 0xC77 PUSH2 0x9EC JUMP JUMPDEST JUMPDEST PUSH2 0xC84 DUP5 DUP3 DUP6 ADD PUSH2 0xC16 JUMP JUMPDEST SWAP2 POP POP SWAP3 SWAP2 POP POP JUMP JUMPDEST PUSH1 0x0 PUSH20 0xFFFFFFFFFFFFFFFFFFFFFFFFFFFFFFFFFFFFFFFF DUP3 AND SWAP1 POP SWAP2 SWAP1 POP JUMP JUMPDEST PUSH1 0x0 PUSH2 0xCB8 DUP3 PUSH2 0xC8D JUMP JUMPDEST SWAP1 POP SWAP2 SWAP1 POP JUMP JUMPDEST PUSH2 0xCC8 DUP2 PUSH2 0xCAD JUMP JUMPDEST DUP3 MSTORE POP POP JUMP JUMPDEST PUSH1 0x0 PUSH1 0x20 DUP3 ADD SWAP1 POP PUSH2 0xCE3 PUSH1 0x0 DUP4 ADD DUP5 PUSH2 0xCBF JUMP JUMPDEST SWAP3 SWAP2 POP POP JUMP JUMPDEST PUSH2 0xCF2 DUP2 PUSH2 0x9F1 JUMP JUMPDEST DUP3 MSTORE POP POP JUMP JUMPDEST PUSH1 0x0 PUSH1 0x40 DUP3 ADD SWAP1 POP DUP2 DUP2 SUB PUSH1 0x0 DUP4 ADD MSTORE PUSH2 0xD12 DUP2 DUP6 PUSH2 0xAB4 JUMP JUMPDEST SWAP1 POP PUSH2 0xD21 PUSH1 0x20 DUP4 ADD DUP5 PUSH2 0xCE9 JUMP JUMPDEST SWAP4 SWAP3 POP POP POP JUMP JUMPDEST PUSH2 0xD31 DUP2 PUSH2 0xCAD JUMP JUMPDEST DUP2 EQ PUSH2 0xD3C JUMPI PUSH1 0x0 DUP1 REVERT JUMPDEST POP JUMP JUMPDEST PUSH1 0x0 DUP2 CALLDATALOAD SWAP1 POP PUSH2 0xD4E DUP2 PUSH2 0xD28 JUMP JUMPDEST SWAP3 SWAP2 POP POP JUMP JUMPDEST PUSH1 0x0 PUSH1 0x20 DUP3 DUP5 SUB SLT ISZERO PUSH2 0xD6A JUMPI PUSH2 0xD69 PUSH2 0x9E7 JUMP JUMPDEST JUMPDEST PUSH1 0x0 PUSH2 0xD78 DUP5 DUP3 DUP6 ADD PUSH2 0xD3F JUMP JUMPDEST SWAP2 POP POP SWAP3 SWAP2 POP POP JUMP JUMPDEST PUSH1 0x0 DUP2 ISZERO ISZERO SWAP1 POP SWAP2 SWAP1 POP JUMP JUMPDEST PUSH2 0xD96 DUP2 PUSH2 0xD81 JUMP JUMPDEST DUP3 MSTORE POP POP JUMP JUMPDEST PUSH1 0x0 PUSH1 0x60 DUP3 ADD SWAP1 POP PUSH2 0xDB1 PUSH1 0x0 DUP4 ADD DUP7 PUSH2 0xCE9 JUMP JUMPDEST PUSH2 0xDBE PUSH1 0x20 DUP4 ADD DUP6 PUSH2 0xD8D JUMP JUMPDEST PUSH2 0xDCB PUSH1 0x40 DUP4 ADD DUP5 PUSH2 0xCE9 JUMP JUMPDEST SWAP5 SWAP4 POP POP POP POP JUMP JUMPDEST PUSH1 0x0 PUSH1 0x20 DUP3 ADD SWAP1 POP PUSH2 0xDE8 PUSH1 0x0 DUP4 ADD DUP5 PUSH2 0xCE9 JUMP JUMPDEST SWAP3 SWAP2 POP POP JUMP JUMPDEST PUSH1 0x0 DUP2 MLOAD SWAP1 POP SWAP2 SWAP1 POP JUMP JUMPDEST PUSH1 0x0 DUP3 DUP3 MSTORE PUSH1 0x20 DUP3 ADD SWAP1 POP SWAP3 SWAP2 POP POP JUMP JUMPDEST PUSH1 0x0 DUP2 SWAP1 POP PUSH1 0x20 DUP3 ADD SWAP1 POP SWAP2 SWAP1 POP JUMP JUMPDEST PUSH1 0x0 DUP3 DUP3 MSTORE PUSH1 0x20 DUP3 ADD SWAP1 POP SWAP3 SWAP2 POP POP JUMP JUMPDEST PUSH1 0x0 PUSH2 0xE36 DUP3 PUSH2 0xA54 JUMP JUMPDEST PUSH2 0xE40 DUP2 DUP6 PUSH2 0xE1A JUMP JUMPDEST SWAP4 POP PUSH2 0xE50 DUP2 DUP6 PUSH1 0x20 DUP7 ADD PUSH2 0xA70 JUMP JUMPDEST PUSH2 0xE59 DUP2 PUSH2 0xAA3 JUMP JUMPDEST DUP5 ADD SWAP2 POP POP SWAP3 SWAP2 POP POP JUMP JUMPDEST PUSH2 0xE6D DUP2 PUSH2 0x9F1 JUMP JUMPDEST DUP3 MSTORE POP POP JUMP JUMPDEST PUSH1 0x0 PUSH1 0x40 DUP4 ADD PUSH1 0x0 DUP4 ADD MLOAD DUP5 DUP3 SUB PUSH1 0x0 DUP7 ADD MSTORE PUSH2 0xE90 DUP3 DUP3 PUSH2 0xE2B JUMP JUMPDEST SWAP2 POP POP PUSH1 0x20 DUP4 ADD MLOAD PUSH2 0xEA5 PUSH1 0x20 DUP7 ADD DUP3 PUSH2 0xE64 JUMP JUMPDEST POP DUP1 SWAP2 POP POP SWAP3 SWAP2 POP POP JUMP JUMPDEST PUSH1 0x0 PUSH2 0xEBC DUP4 DUP4 PUSH2 0xE73 JUMP JUMPDEST SWAP1 POP SWAP3 SWAP2 POP POP JUMP JUMPDEST PUSH1 0x0 PUSH1 0x20 DUP3 ADD SWAP1 POP SWAP2 SWAP1 POP JUMP JUMPDEST PUSH1 0x0 PUSH2 0xEDC DUP3 PUSH2 0xDEE JUMP JUMPDEST PUSH2 0xEE6 DUP2 DUP6 PUSH2 0xDF9 JUMP JUMPDEST SWAP4 POP DUP4 PUSH1 0x20 DUP3 MUL DUP6 ADD PUSH2 0xEF8 DUP6 PUSH2 0xE0A JUMP JUMPDEST DUP1 PUSH1 0x0 JUMPDEST DUP6 DUP2 LT ISZERO PUSH2 0xF34 JUMPI DUP5 DUP5 SUB DUP10 MSTORE DUP2 MLOAD PUSH2 0xF15 DUP6 DUP3 PUSH2 0xEB0 JUMP JUMPDEST SWAP5 POP PUSH2 0xF20 DUP4 PUSH2 0xEC4 JUMP JUMPDEST SWAP3 POP PUSH1 0x20 DUP11 ADD SWAP10 POP POP PUSH1 0x1 DUP2 ADD SWAP1 POP PUSH2 0xEFC JUMP JUMPDEST POP DUP3 SWAP8 POP DUP8 SWAP6 POP POP POP POP POP POP SWAP3 SWAP2 POP POP JUMP JUMPDEST PUSH1 0x0 PUSH1 0x20 DUP3 ADD SWAP1 POP DUP2 DUP2 SUB PUSH1 0x0 DUP4 ADD MSTORE PUSH2 0xF60 DUP2 DUP5 PUSH2 0xED1 JUMP JUMPDEST SWAP1 POP SWAP3 SWAP2 POP POP JUMP JUMPDEST PUSH32 0x766F74657220686173206E6F20726967687420746F20766F7465000000000000 PUSH1 0x0 DUP3 ADD MSTORE POP JUMP JUMPDEST PUSH1 0x0 PUSH2 0xF9E PUSH1 0x1A DUP4 PUSH2 0xA5F JUMP JUMPDEST SWAP2 POP PUSH2 0xFA9 DUP3 PUSH2 0xF68 JUMP JUMPDEST PUSH1 0x20 DUP3 ADD SWAP1 POP SWAP2 SWAP1 POP JUMP JUMPDEST PUSH1 0x0 PUSH1 0x20 DUP3 ADD SWAP1 POP DUP2 DUP2 SUB PUSH1 0x0 DUP4 ADD MSTORE PUSH2 0xFCD DUP2 PUSH2 0xF91 JUMP JUMPDEST SWAP1 POP SWAP2 SWAP1 POP JUMP JUMPDEST PUSH32 0x766F7465722068617320616C726561647920766F746564000000000000000000 PUSH1 0x0 DUP3 ADD MSTORE POP JUMP JUMPDEST PUSH1 0x0 PUSH2 0x100A PUSH1 0x17 DUP4 PUSH2 0xA5F JUMP JUMPDEST SWAP2 POP PUSH2 0x1015 DUP3 PUSH2 0xFD4 JUMP JUMPDEST PUSH1 0x20 DUP3 ADD SWAP1 POP SWAP2 SWAP1 POP JUMP JUMPDEST PUSH1 0x0 PUSH1 0x20 DUP3 ADD SWAP1 POP DUP2 DUP2 SUB PUSH1 0x0 DUP4 ADD MSTORE PUSH2 0x1039 DUP2 PUSH2 0xFFD JUMP JUMPDEST SWAP1 POP SWAP2 SWAP1 POP JUMP JUMPDEST PUSH32 0x4E487B7100000000000000000000000000000000000000000000000000000000 PUSH1 0x0 MSTORE PUSH1 0x32 PUSH1 0x4 MSTORE PUSH1 0x24 PUSH1 0x0 REVERT JUMPDEST PUSH32 0x4E487B7100000000000000000000000000000000000000000000000000000000 PUSH1 0x0 MSTORE PUSH1 0x11 PUSH1 0x4 MSTORE PUSH1 0x24 PUSH1 0x0 REVERT JUMPDEST PUSH1 0x0 PUSH2 0x10A9 DUP3 PUSH2 0x9F1 JUMP JUMPDEST SWAP2 POP PUSH2 0x10B4 DUP4 PUSH2 0x9F1 JUMP JUMPDEST SWAP3 POP DUP3 PUSH32 0xFFFFFFFFFFFFFFFFFFFFFFFFFFFFFFFFFFFFFFFFFFFFFFFFFFFFFFFFFFFFFFFF SUB DUP3 GT ISZERO PUSH2 0x10E9 JUMPI PUSH2 0x10E8 PUSH2 0x106F JUMP JUMPDEST JUMPDEST DUP3 DUP3 ADD SWAP1 POP SWAP3 SWAP2 POP POP JUMP JUMPDEST PUSH32 0x4E487B7100000000000000000000000000000000000000000000000000000000 PUSH1 0x0 MSTORE PUSH1 0x22 PUSH1 0x4 MSTORE PUSH1 0x24 PUSH1 0x0 REVERT JUMPDEST PUSH1 0x0 PUSH1 0x2 DUP3 DIV SWAP1 POP PUSH1 0x1 DUP3 AND DUP1 PUSH2 0x113B JUMPI PUSH1 0x7F DUP3 AND SWAP2 POP JUMPDEST PUSH1 0x20 DUP3 LT DUP2 SUB PUSH2 0x114E JUMPI PUSH2 0x114D PUSH2 0x10F4 JUMP JUMPDEST JUMPDEST POP SWAP2 SWAP1 POP JUMP JUMPDEST PUSH32 0x4F6E6C79206D6F64657261746F72206861732061636365737300000000000000 PUSH1 0x0 DUP3 ADD MSTORE POP JUMP JUMPDEST PUSH1 0x0 PUSH2 0x118A PUSH1 0x19 DUP4 PUSH2 0xA5F JUMP JUMPDEST SWAP2 POP PUSH2 0x1195 DUP3 PUSH2 0x1154 JUMP JUMPDEST PUSH1 0x20 DUP3 ADD SWAP1 POP SWAP2 SWAP1 POP JUMP JUMPDEST PUSH1 0x0 PUSH1 0x20 DUP3 ADD SWAP1 POP DUP2 DUP2 SUB PUSH1 0x0 DUP4 ADD MSTORE PUSH2 0x11B9 DUP2 PUSH2 0x117D JUMP JUMPDEST SWAP1 POP SWAP2 SWAP1 POP JUMP JUMPDEST PUSH32 0x54686520766F74657220616C726561647920766F746564000000000000000000 PUSH1 0x0 DUP3 ADD MSTORE POP JUMP JUMPDEST PUSH1 0x0 PUSH2 0x11F6 PUSH1 0x17 DUP4 PUSH2 0xA5F JUMP JUMPDEST SWAP2 POP PUSH2 0x1201 DUP3 PUSH2 0x11C0 JUMP JUMPDEST PUSH1 0x20 DUP3 ADD SWAP1 POP SWAP2 SWAP1 POP JUMP JUMPDEST PUSH1 0x0 PUSH1 0x20 DUP3 ADD SWAP1 POP DUP2 DUP2 SUB PUSH1 0x0 DUP4 ADD MSTORE PUSH2 0x1225 DUP2 PUSH2 0x11E9 JUMP JUMPDEST SWAP1 POP SWAP2 SWAP1 POP JUMP JUMPDEST PUSH32 0x566F7465722063616E277420766F746500000000000000000000000000000000 PUSH1 0x0 DUP3 ADD MSTORE POP JUMP JUMPDEST PUSH1 0x0 PUSH2 0x1262 PUSH1 0x10 DUP4 PUSH2 0xA5F JUMP JUMPDEST SWAP2 POP PUSH2 0x126D DUP3 PUSH2 0x122C JUMP JUMPDEST PUSH1 0x20 DUP3 ADD SWAP1 POP SWAP2 SWAP1 POP JUMP JUMPDEST PUSH1 0x0 PUSH1 0x20 DUP3 ADD SWAP1 POP DUP2 DUP2 SUB PUSH1 0x0 DUP4 ADD MSTORE PUSH2 0x1291 DUP2 PUSH2 0x1255 JUMP JUMPDEST SWAP1 POP SWAP2 SWAP1 POP JUMP JUMPDEST PUSH1 0x0 PUSH2 0x12A3 DUP3 PUSH2 0x9F1 JUMP JUMPDEST SWAP2 POP PUSH32 0xFFFFFFFFFFFFFFFFFFFFFFFFFFFFFFFFFFFFFFFFFFFFFFFFFFFFFFFFFFFFFFFF DUP3 SUB PUSH2 0x12D5 JUMPI PUSH2 0x12D4 PUSH2 0x106F JUMP JUMPDEST JUMPDEST PUSH1 0x1 DUP3 ADD SWAP1 POP SWAP2 SWAP1 POP JUMP INVALID LOG2 PUSH5 0x6970667358 0x22 SLT KECCAK256 PUSH31 0xD0C4E7EE8AF54C28B14C71B5FC03C7C9AE08DA639A79581FEB28FC8DC722A5 PUSH5 0x736F6C6343 STOP ADDMOD 0xD STOP CALLER "},"methodIdentifiers":{"addCategory(string)":"2e0dcbf7","getVotingCategories()":"f167c273","giveRightToVote(address)":"9e7b8d61","moderator()":"38743904","vote(uint256)":"0121b93f","voters(address)":"a3ec138d","votingCategories(uint256)":"6fbb8640","winningCategory()":"d26e8313","winningCategoryName()":"2b6779b0"}}}}}