{"contracts/ctf.sol":{"MyContract":{"abi":[{"inputs":[],"name":"ctfContract","outputs":[{"internalType":"contract S_M","name":"","type":"address"}],"stateMutability":"view","type":"function"},{"inputs":[],"name":"openDoor","outputs":[],"stateMutability":"nonpayable","type":"function"}],"evm":{"bytecode":{"linkReferences":{},"object":"608060405273a12f263c0cc0a060fd44c9b9a69606de2bc8583c6000806101000a81548173ffffffffffffffffffffffffffffffffffffffff021916908373ffffffffffffffffffffffffffffffffffffffff16021790555034801561006457600080fd5b506103b2806100746000396000f3fe608060405234801561001057600080fd5b50600436106100365760003560e01c806334c944141461003b578063db0e127a14610059575b600080fd5b610043610063565b6040516100509190610251565b60405180910390f35b610061610087565b005b60008054906101000a900473ffffffffffffffffffffffffffffffffffffffff1681565b60006002905060006040518060400160405280600781526020017f61796f64656a6900000000000000000000000000000000000000000000000000815250905060006040518060400160405280601581526020017f73696d706c655f626173655f36345f737472696e670000000000000000000000815250905060006040518060400160405280600381526020017f6f786f0000000000000000000000000000000000000000000000000000000000815250905060008054906101000a900473ffffffffffffffffffffffffffffffffffffffff1673ffffffffffffffffffffffffffffffffffffffff1663548074de858585856040518563ffffffff1660e01b815260040161019a9493929190610322565b600060405180830381600087803b1580156101b457600080fd5b505af11580156101c8573d6000803e3d6000fd5b5050505050505050565b600073ffffffffffffffffffffffffffffffffffffffff82169050919050565b6000819050919050565b600061021761021261020d846101d2565b6101f2565b6101d2565b9050919050565b6000610229826101fc565b9050919050565b600061023b8261021e565b9050919050565b61024b81610230565b82525050565b60006020820190506102666000830184610242565b92915050565b600061ffff82169050919050565b6102838161026c565b82525050565b600081519050919050565b600082825260208201905092915050565b60005b838110156102c35780820151818401526020810190506102a8565b838111156102d2576000848401525b50505050565b6000601f19601f8301169050919050565b60006102f482610289565b6102fe8185610294565b935061030e8185602086016102a5565b610317816102d8565b840191505092915050565b6000608082019050610337600083018761027a565b818103602083015261034981866102e9565b9050818103604083015261035d81856102e9565b9050818103606083015261037181846102e9565b90509594505050505056fea2646970667358221220efd842bd4e525cb16f2b6211f80b12bacc15dbbe80be0d6622d4547e00ed56a064736f6c634300080d0033","opcodes":"PUSH1 0x80 PUSH1 0x40 MSTORE PUSH20 0xA12F263C0CC0A060FD44C9B9A69606DE2BC8583C PUSH1 0x0 DUP1 PUSH2 0x100 EXP DUP2 SLOAD DUP2 PUSH20 0xFFFFFFFFFFFFFFFFFFFFFFFFFFFFFFFFFFFFFFFF MUL NOT AND SWAP1 DUP4 PUSH20 0xFFFFFFFFFFFFFFFFFFFFFFFFFFFFFFFFFFFFFFFF AND MUL OR SWAP1 SSTORE POP CALLVALUE DUP1 ISZERO PUSH2 0x64 JUMPI PUSH1 0x0 DUP1 REVERT JUMPDEST POP PUSH2 0x3B2 DUP1 PUSH2 0x74 PUSH1 0x0 CODECOPY PUSH1 0x0 RETURN INVALID PUSH1 0x80 PUSH1 0x40 MSTORE CALLVALUE DUP1 ISZERO PUSH2 0x10 JUMPI PUSH1 0x0 DUP1 REVERT JUMPDEST POP PUSH1 0x4 CALLDATASIZE LT PUSH2 0x36 JUMPI PUSH1 0x0 CALLDATALOAD PUSH1 0xE0 SHR DUP1 PUSH4 0x34C94414 EQ PUSH2 0x3B JUMPI DUP1 PUSH4 0xDB0E127A EQ PUSH2 0x59 JUMPI JUMPDEST PUSH1 0x0 DUP1 REVERT JUMPDEST PUSH2 0x43 PUSH2 0x63 JUMP JUMPDEST PUSH1 0x40 MLOAD PUSH2 0x50 SWAP2 SWAP1 PUSH2 0x251 JUMP JUMPDEST PUSH1 0x40 MLOAD DUP1 SWAP2 SUB SWAP1 RETURN JUMPDEST PUSH2 0x61 PUSH2 0x87 JUMP JUMPDEST STOP JUMPDEST PUSH1 0x0 DUP1 SLOAD SWAP1 PUSH2 0x100 EXP SWAP1 DIV PUSH20 0xFFFFFFFFFFFFFFFFFFFFFFFFFFFFFFFFFFFFFFFF AND DUP2 JUMP JUMPDEST PUSH1 0x0 PUSH1 0x2 SWAP1 POP PUSH1 0x0 PUSH1 0x40 MLOAD DUP1 PUSH1 0x40 ADD PUSH1 0x40 MSTORE DUP1 PUSH1 0x7 DUP2 MSTORE PUSH1 0x20 ADD PUSH32 0x61796F64656A6900000000000000000000000000000000000000000000000000 DUP2 MSTORE POP SWAP1 POP PUSH1 0x0 PUSH1 0x40 MLOAD DUP1 PUSH1 0x40 ADD PUSH1 0x40 MSTORE DUP1 PUSH1 0x15 DUP2 MSTORE PUSH1 0x20 ADD PUSH32 0x73696D706C655F626173655F36345F737472696E670000000000000000000000 DUP2 MSTORE POP SWAP1 POP PUSH1 0x0 PUSH1 0x40 MLOAD DUP1 PUSH1 0x40 ADD PUSH1 0x40 MSTORE DUP1 PUSH1 0x3 DUP2 MSTORE PUSH1 0x20 ADD PUSH32 0x6F786F0000000000000000000000000000000000000000000000000000000000 DUP2 MSTORE POP SWAP1 POP PUSH1 0x0 DUP1 SLOAD SWAP1 PUSH2 0x100 EXP SWAP1 DIV PUSH20 0xFFFFFFFFFFFFFFFFFFFFFFFFFFFFFFFFFFFFFFFF AND PUSH20 0xFFFFFFFFFFFFFFFFFFFFFFFFFFFFFFFFFFFFFFFF AND PUSH4 0x548074DE DUP6 DUP6 DUP6 DUP6 PUSH1 0x40 MLOAD DUP6 PUSH4 0xFFFFFFFF AND PUSH1 0xE0 SHL DUP2 MSTORE PUSH1 0x4 ADD PUSH2 0x19A SWAP5 SWAP4 SWAP3 SWAP2 SWAP1 PUSH2 0x322 JUMP JUMPDEST PUSH1 0x0 PUSH1 0x40 MLOAD DUP1 DUP4 SUB DUP2 PUSH1 0x0 DUP8 DUP1 EXTCODESIZE ISZERO DUP1 ISZERO PUSH2 0x1B4 JUMPI PUSH1 0x0 DUP1 REVERT JUMPDEST POP GAS CALL ISZERO DUP1 ISZERO PUSH2 0x1C8 JUMPI RETURNDATASIZE PUSH1 0x0 DUP1 RETURNDATACOPY RETURNDATASIZE PUSH1 0x0 REVERT JUMPDEST POP POP POP POP POP POP POP POP JUMP JUMPDEST PUSH1 0x0 PUSH20 0xFFFFFFFFFFFFFFFFFFFFFFFFFFFFFFFFFFFFFFFF DUP3 AND SWAP1 POP SWAP2 SWAP1 POP JUMP JUMPDEST PUSH1 0x0 DUP2 SWAP1 POP SWAP2 SWAP1 POP JUMP JUMPDEST PUSH1 0x0 PUSH2 0x217 PUSH2 0x212 PUSH2 0x20D DUP5 PUSH2 0x1D2 JUMP JUMPDEST PUSH2 0x1F2 JUMP JUMPDEST PUSH2 0x1D2 JUMP JUMPDEST SWAP1 POP SWAP2 SWAP1 POP JUMP JUMPDEST PUSH1 0x0 PUSH2 0x229 DUP3 PUSH2 0x1FC JUMP JUMPDEST SWAP1 POP SWAP2 SWAP1 POP JUMP JUMPDEST PUSH1 0x0 PUSH2 0x23B DUP3 PUSH2 0x21E JUMP JUMPDEST SWAP1 POP SWAP2 SWAP1 POP JUMP JUMPDEST PUSH2 0x24B DUP2 PUSH2 0x230 JUMP JUMPDEST DUP3 MSTORE POP POP JUMP JUMPDEST PUSH1 0x0 PUSH1 0x20 DUP3 ADD SWAP1 POP PUSH2 0x266 PUSH1 0x0 DUP4 ADD DUP5 PUSH2 0x242 JUMP JUMPDEST SWAP3 SWAP2 POP POP JUMP JUMPDEST PUSH1 0x0 PUSH2 0xFFFF DUP3 AND SWAP1 POP SWAP2 SWAP1 POP JUMP JUMPDEST PUSH2 0x283 DUP2 PUSH2 0x26C JUMP JUMPDEST DUP3 MSTORE POP POP JUMP JUMPDEST PUSH1 0x0 DUP2 MLOAD SWAP1 POP SWAP2 SWAP1 POP JUMP JUMPDEST PUSH1 0x0 DUP3 DUP3 MSTORE PUSH1 0x20 DUP3 ADD SWAP1 POP SWAP3 SWAP2 POP POP JUMP JUMPDEST PUSH1 0x0 JUMPDEST DUP4 DUP2 LT ISZERO PUSH2 0x2C3 JUMPI DUP1 DUP3 ADD MLOAD DUP2 DUP5 ADD MSTORE PUSH1 0x20 DUP2 ADD SWAP1 POP PUSH2 0x2A8 JUMP JUMPDEST DUP4 DUP2 GT ISZERO PUSH2 0x2D2 JUMPI PUSH1 0x0 DUP5 DUP5 ADD MSTORE JUMPDEST POP POP POP POP JUMP JUMPDEST PUSH1 0x0 PUSH1 0x1F NOT PUSH1 0x1F DUP4 ADD AND SWAP1 POP SWAP2 SWAP1 POP JUMP JUMPDEST PUSH1 0x0 PUSH2 0x2F4 DUP3 PUSH2 0x289 JUMP JUMPDEST PUSH2 0x2FE DUP2 DUP6 PUSH2 0x294 JUMP JUMPDEST SWAP4 POP PUSH2 0x30E DUP2 DUP6 PUSH1 0x20 DUP7 ADD PUSH2 0x2A5 JUMP JUMPDEST PUSH2 0x317 DUP2 PUSH2 0x2D8 JUMP JUMPDEST DUP5 ADD SWAP2 POP POP SWAP3 SWAP2 POP POP JUMP JUMPDEST PUSH1 0x0 PUSH1 0x80 DUP3 ADD SWAP1 POP PUSH2 0x337 PUSH1 0x0 DUP4 ADD DUP8 PUSH2 0x27A JUMP JUMPDEST DUP2 DUP2 SUB PUSH1 0x20 DUP4 ADD MSTORE PUSH2 0x349 DUP2 DUP7 PUSH2 0x2E9 JUMP JUMPDEST SWAP1 POP DUP2 DUP2 SUB PUSH1 0x40 DUP4 ADD MSTORE PUSH2 0x35D DUP2 DUP6 PUSH2 0x2E9 JUMP JUMPDEST SWAP1 POP DUP2 DUP2 SUB PUSH1 0x60 DUP4 ADD MSTORE PUSH2 0x371 DUP2 DUP5 PUSH2 0x2E9 JUMP JUMPDEST SWAP1 POP SWAP6 SWAP5 POP POP POP POP POP JUMP INVALID LOG2 PUSH5 0x6970667358 0x22 SLT KECCAK256 0xEF 0xD8 TIMESTAMP 0xBD 0x4E MSTORE 0x5C 0xB1 PUSH16 0x2B6211F80B12BACC15DBBE80BE0D6622 0xD4 SLOAD PUSH31 0xED56A064736F6C634300080D003300000000000000000000000000000000 "},"methodIdentifiers":{"ctfContract()":"34c94414","openDoor()":"db0e127a"}}}}}